:020000041002E8
:1010000000200420F7100210C3100210C5100210B7
:10101000C1100210C1100210C1100210C110021044
:10102000C1100210C1100210C1100210C71002102E
:10103000C1100210C1100210C9100210CB10021012
:10104000CD100210CD100210CD100210CD100210E4
:10105000CD100210CD100210CD100210CD100210D4
:10106000CD100210CD100210CD100210CD100210C4
:10107000CD100210CD100210CD100210CD100210B4
:10108000CD100210CD100210CD100210CD100210A4
:10109000CD100210CD100210CD100210CD10021094
:1010A000CD100210CD100210CD100210CD10021084
:1010B000CD100210CD100210CD100210CD10021074
:1010C00000BE00BE00BE00BE00BE00BEEFF3058045
:1010D000103800BEF2EB8871F05D02100C5E021059
:1010E0003811021090A31AE71E481F49086006C86D
:1010F00081F3088810471D480068002801D019486E
:10110000F3E70DA40ECC002902D000F012F8F9E7A5
:101110001749184A002000E001C19142FCD116494C
:101120008847164988471649884700BEFDE701C928
:1011300001C29A42FBD370470C5E0210C00000202F
:10114000400200208C5F02100000042000000420F8
:101150008C5F02100010042000100420000000002A
:10116000704700000000000008ED00E0000000D023
:101170004002002034150020B9480210754D0210BD
:10118000B1480210F8B5C04606480749091A8B1045
:10119000C90FC91810B5491003D0044B002B00D05B
:1011A000984710BD400200204002002000000000CF
:1011B000054B10B5002B03D00449054800E000BFE3
:1011C000FFF7E2FF10BDC04600000000E013002062
:1011D000505A02107047C046F8B51E4C1E4B61684D
:1011E0005A6A2068914226D89B6A834224D30121FF
:1011F0001A4A13784B40137026D0D02380221B0646
:1012000092045A61164B1D6800F046FDFA22060052
:101210000F00002392002800002101F011FF801927
:1012200079410B008021020009068B4202D3012282
:101230000C4B52420CC4F8BD9142FCD00121074A2C
:1012400013784B401370D8D1D02380221B06920410
:101250009A61D7E740020020004005403015002089
:1012600098010020FFFFFF7F10B50378452B00D0C9
:1012700010BD411C014803F041FDF9E7505A02102E
:10128000094A83009A1810B51468402254408032ED
:101290002240064CC000A44663441A60044B9C469E
:1012A0006044416010BDC04604C0014004D001400C
:1012B000004001400123D0228340120693629361D3
:1012C000094A83009A1811684022514080320A402E
:1012D0000649C0008C4663441A60054B9C460523B2
:1012E000604443607047C04604C0014004D00140E0
:1012F000004001400FB400B5084883B003F044FC3F
:10130000049B002B07D005A91800019103F0B6FA41
:10131000034803F039FC012003F0C8FA585A0210C0
:10132000685A021070B5EFF3108C72B60D4D2B6831
:10133000002BFCD0BFF35F8F0724CB08C618C05C1E
:1013400001230C40A3401C000440034207D1184372
:101350003070BFF35F8F2C608CF3108870BD10006D
:10136000FFF7C8FF2C0100D0F8B54746CE468846A7
:1013700080B5EFF3108C72B6214D2C68002CFCD098
:10138000BFF35F8F9A422CD8D4080727055D061952
:1013900001241740BC402C421FD007210127894659
:1013A00009E0D408055D06194C4639001440A140F7
:1013B0000C00294211D001329342F2D20120404266
:1013C000BFF35F8F00220E4B1A608CF31088002849
:1013D0000FDBC0BCB946B046F8BD254310003570E0
:1013E000EEE7BFF35F8F00232B608CF310880120A2
:1013F00040424346002BECD00898FFF77BFFC046E5
:101400002C0100D0044A1078431CDBB2172B00D902
:10141000102313707047C0469C01002010B5064B86
:10142000064C82B00100009318221F232000FFF712
:101430009BFF02B010BDC0466C5A0210980F0020EE
:101440000021044B044ABFF35F8F02C39342FAD1D9
:101450007047C046000100D0800100D0054B064A0D
:101460001360064A136053609360D3601361536145
:10147000936170478080808000E400E004E400E035
:101480001F2318401E3B8340002905D0C021044A79
:101490004900535013607047802201498B50FAE78E
:1014A00000E100E070B50D00EFF3108672B60F4A50
:1014B0001368002BFCD0BFF35F8F0D4B10309B687F
:1014C00084001B590B4A934203D09D4201D000F087
:1014D00095FE074B9B681D51BFF35F8FBFF35F8F76
:1014E0000022024B1A6086F3108870BD240100D0E0
:1014F00000ED00E0CD100210024B9C4661448900D3
:10150000016070474000003470B5114C114DAC4281
:101510000FD2FF262368002B0CD0FFF773FF0100CA
:101520002000FFF7E9FFA680BFF35F8F0834AC42CD
:10153000F0D370BDFFF766FF01002000FFF7DCFF6E
:101540002671BFF35F8F0834AC42E3D3F1E7C046A6
:10155000E8010020F801002010B504000120FFF789
:101560005DFF034BC3189B002360BFF35F8F10BD6B
:10157000400000340A4B1968EFF3108072B60A6815
:10158000002AFCD0BFF35F8F1B68BFF35F8F002280
:101590001A6080F3108840BF002000217047C046C9
:1015A0000C140020F0B5DE4657464E464546E0B5E1
:1015B00083B0EFF3058203231340B54A99005258D4
:1015C0000091904601229A409346B24B1A60B24B6A
:1015D00001935B46B1484363434608229B5E9946AC
:1015E000002B3ADA43469B881BB2002B00DB9DE0C0
:1015F00043469B79002B00D0E1E0434608241C5F62
:10160000002C20DB43465A6963001B19DB00D3180A
:101610009D68DC686B1C00D103E1A04800998446FA
:101620006144826A0B69AE1A9B1A9E4213D35A46D2
:10163000036A1A420FD0994800F026FB8C4202DC64
:10164000C7D18542C5D940BF03B0F0BCBB46B24646
:10165000A946A046F0BD0D61EDE7424652695B0028
:1016600092464B44DB009A4453469E68DF6800F084
:101670000BFB8F42B6DC00D1F8E0002F00DAD9E096
:101680005246534654691B69019A934200D1CCE0FB
:10169000414652460820085E52880004210010434B
:1016A000984704000D0023002B4300D1C2E0002D19
:1016B00000DBDFE030003900001BA9415346986091
:1016C000D96000229A5E002A00DA8BE743465D6902
:1016D00053009C18E4002C19A768E4688C4200DDD4
:1016E00080E702D1874200D97CE74646328108363E
:1016F0000DE08C4200D1C6E01E000023F25E002AFD
:101700000ADB53009C18E4002C19A768E4689B18B6
:10171000DB00EB188C42ECDD53461A804B463380DD
:1017200043469B881BB2002B00DA61E743461A69E7
:10173000EFF3108172B61368002BFCD0BFF35F8FFC
:1017400043469E88012342465B42938036B213692A
:10175000BFF35F8F00221A6081F31088002E00DA39
:1017600046E743465D69083342469C467700BF1909
:10177000FF00EF19BB68604698460823D15E924689
:10178000FC68002907DA0EE0A24246D018000023C8
:10179000C15E002906DB4B005B18DB00EB18DA6842
:1017A000A242F1DD524606800023FE5E3980002E03
:1017B000DCDA904643469B79002B00D11DE70023DD
:1017C00042469371434646460821595E08364B1CF3
:1017D00000D138E747468946556902E006004B1CB0
:1017E00018D04B005B18DB00E8180A008C46E95E55
:1017F00043881BB2002BF1DA01235B42DC178360C4
:10180000C4604A4503D031803B8903803A81E14678
:101810004B1CE6D1B8464C46F2E69A684245B5D92B
:10182000C0E7631C00D0F8E605E72000236998476D
:10183000002825D1534642461B8813811269EFF3D5
:10184000108372B611680029FCD0BFF35F8F424647
:10185000514652880A804246494651801269BFF378
:101860005F8F0021116083F31088BBE6864200D8A9
:1018700003E7B7E6094800F007FA001969411DE7D8
:10188000656824680FE7874200D835E744E7C0461B
:10189000F81300203C700540A515021000400540DB
:1018A00070B52E4C2569002D04D00A212C48FFF775
:1018B00023FE70BD2B4E0321300000F0DBF9E66003
:1018C000FFF7A0FD284B03229C46D02322701B0665
:1018D0001B6801216370254B6044A3600F238000C7
:1018E00020610220638063694942A180198002312E
:1018F000198647311D83585218315A5275325C3956
:1019000099521832013199521832013199521832D4
:1019100001319952083518329D52023118329952CC
:10192000183201319952183201319952183201316D
:1019300099521832013199521832013199520C4B97
:101940000C49DC6001303562FFF7ACFD012103205A
:10195000FFF796FD084B1D60A7E7C046A0010020D9
:101960000C1400200040054040000034FFFF100030
:10197000F8130020A5150210386005400048704794
:10198000A0010020F8B51F0008AB1B78040016006A
:10199000002B08D100F080F932003B00121A8B4175
:1019A000002B00DA53E02269EFF3108072B613685F
:1019B000002BFCD0BFF35F8F0223E15E63694A0016
:1019C0005218D2009B18002937DB1A8862802269DE
:1019D000BFF35F8F0025156080F31088069A9E6024
:1019E000DF601A61079A5A615A8801325204520C18
:1019F000101C002A1FD082B25880080410432669A8
:101A0000EFF3108772B63268002AFCD0BFF35F8F05
:101A1000A2881A80A1802369BFF35F8F00221A6019
:101A200087F310880B4923788C4601329A40E3688B
:101A300063441A60F8BD0120DDE72369BFF35F8FBF
:101A400000221A6080F3108801204042F2E7002053
:101A5000F0E7C0463C20000070B501000469EFF3D8
:101A6000108C72B620680028FCD0BFF35F8F022074
:101A70000D5E4C6968004019C0002418002D37DB4A
:101A8000208848800869BFF35F8F002606608CF3CA
:101A90001088E36063880498013320615B04059833
:101AA0005B0CA26060611A1C002B1FD093B228044B
:101AB000628018430A69EFF3108C72B61368002B2A
:101AC000FCD0BFF35F8F8B8823808D800B69BFF3C1
:101AD0005F8F00221A608CF310880B7801329A40D5
:101AE000CB6808498C4663441A6070BD0122DDE76B
:101AF0000B69BFF35F8F00221A608CF310880120FE
:101B00004042F2E73C20000010B543890A1493429A
:101B10001ADD53009B184269DB00D3180469EFF308
:101B2000108C72B62268002AFCD0BFF35F8F5A88EF
:101B3000090494B2090C8A4208D00369BFF35F8F8D
:101B400000221A608CF31088002010BD802212023F
:101B500014435C80012302698371BFF35F8F00210E
:101B600011608CF31088044902788C469340C26857
:101B7000012062441360E8E73C200000F0B5D6463F
:101B80004F464646C0B504000D0082B0EFF305870E
:101B90008946002F0ED0344900204B6AAB4203D354
:101BA0008A6A0130A24226D302B0E0BCBA46B146EE
:101BB000A846F0BD2D4B9846DB689A4643465046F2
:101BC0001E7800F061F80B00514602000436B600A2
:101BD000715820008E1A2900801A99418F4211DC19
:101BE0000ED020BF204A0020536A4B45DCD3926AB6
:101BF0000130A242D8D25B1B5A1E9341D8B2D3E720
:101C00008642EED900F048F822002B00121A8B41D0
:101C1000002B1ADB00230193154B22000093404652
:101C20002B00FFF719FF011E0FDD0F4B5A6A4A45C3
:101C300017D39B6AA34212D34046FFF765FF0A4AB7
:101C40000020536A4B45AFD3D1E7074A0020536ABF
:101C50004B45A9D3926A0120A242A5D2CBE74A45BF
:101C6000EAD120BFE8E7C04600400540A0010020BF
:101C70007515021010B5024A0248FFF753FB10BD5C
:101C8000885A02109C0F00200300416A0A00986ADB
:101C9000596A8A42FAD17047034B596A0A00986A16
:101CA000596A9142FAD170470040054070B504006E
:101CB0000D00174A536A1900966A536A8B42FAD18B
:101CC0003000190024184D41AB4216D813D0104AE9
:101CD0002B00526A954203D90D494A6A9A42FCD3B5
:101CE0009A4207D10A4A02E0516A994202D1916AA6
:101CF000A142F9D370BDA642E9D9054B5B6A1C002D
:101D00005A1CEFD0012301246442E5175B42E3E74C
:101D100000400540F8B5040006200D0000F078F9F9
:101D2000002844D0374B3849E3185A1E934180228B
:101D3000120494465B429B0D344A9B056344136036
:101D4000334A136018000A689043FBD12D4B314A87
:101D5000E31859424B4180215B004900062099520B
:101D600000F056F92900C00000F04EFB0130C30915
:101D70001ED1402701226262A362266BF30722D4A0
:101D8000E36A254B0620E51800232B60266300F04C
:101D90003FF93900800000F037FB7023E26A5A40B7
:101DA0000E3313402B601D4B23630323A364F8BD44
:101DB0001B4A93421ED900231A4A1B4F6262A36238
:101DC000266BF307DCD5194B144AE3181A60656AD1
:101DD000A36A0620AD01ED1800F01AF9144900F0CD
:101DE00013FBAD020100280000F00EFB0021FFF7FD
:101DF0005DFFC5E74006800E9F011A003F180300F3
:101E0000B9E7C0460080FCBF08C0004000E00040C9
:101E100000F000402C1500202C10000001030000F1
:101E2000FEFF0000FFFF0000C0FF3F003030000059
:101E30004E0E0000F8B5DE464E4657464546E0B524
:101E40008B4605000A991800160000F0DDFA0A9B7F
:101E50006C001F02324B64199C46A4006444636802
:101E600081469F4200D967602B1FDBB29846012B49
:101E700030D9C02380229B01E31812011A60294B3C
:101E8000AD0059599A4600291BD17301E0262268FA
:101E900053401E40802342465B01E3181E60012A26
:101EA00030D9802380229B01E31812011A60534627
:101EB0004A4667605A51F0BCBB46B246A946A046A6
:101EC000F8BD586900F0A0FA013043001B18033B2D
:101ED000FDD2DAE75B46012BCBD1C02303229B0165
:101EE000E3181A60023AA3681A42FCD07301E02694
:101EF0002268AD0053401E4080230A4A5B0192468F
:101F0000E3181E605A462168514003220A401A60B5
:101F100001225B469A40A3681A42FCD0C1E7C04642
:101F200000800040A00F0020F0B546464F46D64640
:101F3000C0B51F00344B44009C462418A4006444E0
:101F4000636888461600FF2B02D880235B0063601D
:101F5000031FDBB29A46012B30D9C02380229B019C
:101F6000E31812011A60294B850059599946002936
:101F70001BD17301E026226853401E408023524645
:101F80005B01E3181E60012A30D9802380229B0167
:101F9000E31812011A6080235B0063604B465F51B7
:101FA000E0BCBA46B146A846F0BD586900F02CFA2C
:101FB000013043001B18033BFDD2DAE74346012BF7
:101FC000CBD1C02303229B01E3181A60023AA36815
:101FD0001A42FCD07301E0262268850053401E405F
:101FE00080230A4A5B019146E3181E60424621683D
:101FF000514003220A401A60012342469340A268DE
:102000001342FCD0C1E7C04600800040A00F002072
:10201000014B8000C0587047A00F0020F8B50400A5
:1020200021481E0017000D0000F0EEF901003800F5
:1020300000F0EAF9069B36041B031E432368002BBD
:1020400020DB1A4B1A49E3185A1E93418022920151
:1020500094465B421B0B174A1B0363441360164AEA
:1020600013601F000A689743FBD1144B2560E218E8
:102070002123A06013602368002BFCDA0823E660AC
:102080001360F8BD3F2322681340AB42D9D1A36847
:102090001B051B0D8342D4D1EE22E368D20213400C
:1020A000B342CED1EDE7C046001BB7000040FDBFF4
:1020B00008C0004000E0004000F000400430000094
:1020C00010B580241C4BE4051C6000281AD00123A5
:1020D0001A4C18431A4BDC611A4C44401C6259627A
:1020E00098628021144BC905196017481749086088
:1020F000E021C9041960002A07D18022144B12067E
:102100001A6010BD0E4BD861EBE753019B1A9B0080
:102110009A18802312015B049A4209D213000D49D8
:102120000B60074B5A608022094BD2051A60E8E722
:10213000094B1A00F3E7C04600B00540D3C007B012
:10214000008005402D3FF84FFCFF010008200140B2
:1021500000A00540DC130020FFFFFF008023024A9F
:102160009B000B43D362704700800540142310B5D9
:102170000100188804331B88984710BD162310B53A
:102180000100188802331B88984710BDF8B54746F0
:10219000CE4680B50F1E19D014239946043304008F
:1021A0000025012698464B461888434621681B881F
:1021B000984701C4431E9841013540420640AF4252
:1021C000F1D13000C0BCB946B046F8BD0126F8E7F1
:1021D000AA23064A1B0113608D235B00D3600449C8
:1021E000044B19605368002BFCDA70470040024032
:1021F00000B0FA00006002407047C04610B50148C8
:10220000FFF778F8AC5A021070B5074D074EB5428B
:1022100009D20024013E761BB60808CD984723005A
:102220000134B342F9D170BDF8010020340200201E
:10223000054B064A06491A60064A074B1A60100009
:102240000B689843FBD1704700E00040BFCDFBFE18
:1022500008C00040FE7F3C0000F00040044BDB6CF7
:10226000002B03D18022034BD2021A607047C04674
:10227000000011504C201150044A054B1A60054AC9
:102280001368DB018033FBD17047C046FFFFFF01BD
:1022900000F0004008C000404022034B9A675A6794
:1022A0001A67DA667047C04600F0014010B5FFF7C4
:1022B000C7F810BD70B5044D044CA968C0222000B9
:1022C00000F02EFFAC6070BD00ED00E000000020CB
:1022D000002310B5294C82B0A367FFF779FF0122D4
:1022E000274B1A60636C012BFCD10322254B1A602B
:1022F000224A936B012BFCD1013300930121224A26
:1023000022480433FFF78AFE052301210093204A67
:102310002048FFF783FE0022022104201E4BFFF716
:1023200003FE0022012105201C4BFFF7FDFD0022CA
:10233000002107201A4BFFF7F7FD0022002108209B
:10234000174BFFF7F1FD8023DB00009300220021F3
:102350000920134BFFF76EFD0022104B00210620D1
:10236000FFF7E2FD0420FFF753FE0E4900F04CF8A2
:1023700001000020FFF7F2FE02B010BD0080004017
:102380003CB0004030B00040002F6859008002404F
:10239000008C864700C00240001BB70040597307FD
:1023A000006CDC0240420F0001480421014B184739
:1023B000C00100208D210210124A936F9B0815D294
:1023C0009066D166002905D0FFE7FFE7FFE7516F70
:1023D000106F704704B580210906C21751400028CC
:1023E00000D0C84303F024FB002104BDF0B5146EF7
:1023F000556E576F166FFFF7E3FF14665566576704
:102400001667F0BD000000D0114A936F9B0813D2ED
:1024100010665166002905D0FFE7FFE7FFE7516F1F
:10242000106F704704B5002801D00020C04303F0AE
:10243000FFFA002104BDC046F0B5146E556E576F0B
:10244000166FFFF7E5FF1466556657671667F0BD10
:10245000000000D094464A4A926F9208624601D228
:1024600028E0C046F0B5464E346E756E776F366F15
:1024700000F020F89446424A14665566576716677E
:102480006246F0BD94463E4A926F9208624601D27F
:1024900054E0C046F0B53A4E346E756E776F366FC5
:1024A00000F04CF89446364A14665566576716672E
:1024B0006246F0BD002B24DB11D000293EDA00B5C6
:1024C000C943404200D1013100F038F8C9434042CD
:1024D00000D10131DB43524200D1013300BD002A5B
:1024E000EBD1002801D1002905D00020C90FC90770
:1024F00001D1C043410800B503F092FA0022002345
:1025000000BD00B500290ADBDB43524200D1013394
:1025100000F014F8C943404200D1013100BDC94365
:10252000404200D10131DB43524200D1013300F07F
:1025300005F8DB43524200D1013300BD002923D10D
:10254000002B18D1002A0CD0BC460D4F38667A6695
:1025500000210023FFE7FFE7FFE77A6F386F674648
:102560007047002801D00748010000B503F058FA71
:102570000022002300BD02000B0000200021704754
:10258000000000D0FFFFFFFF002B00D0BFE0130CC6
:1025900028D1002AE7D080B4114F39667A66FFE768
:1025A000FFE730B4040C7B6F396F1B0423433B6699
:1025B0007A66FFE7FFE7FFE7C04684B27B6F3D6FB7
:1025C0001B0423433B667A66FFE7FFE7C046002310
:1025D0002C042D0C7A6F386F00196941B0BC70471C
:1025E000000000D0F0B594460025140E01D112026F
:1025F0000835140F01D112010435940F01D1920056
:102600000235D40F01D152000135D40B0134254FCE
:102610007C66254C3C660E0C93B2FFE7FFE7FFE7B4
:102620003C6F6643360C7703BE467343DF0B5B0497
:10263000C01AB941130C7343DB18C91ACE0866439C
:10264000360CB64493B273431F0F1B01C01AB94135
:10265000130C73431F0B1B05C01AB941860D8F0263
:102660003E436643360C092D24DB520A7243801A1E
:102670007703460A6643360C16235B1BDE40DF40B9
:10268000BF1964466643821B704604350633010059
:10269000D940A840C01900D30131A24206D200237C
:1026A000F0BD0000000000D0FFFFFFFF121B013053
:1026B000F3D3F1E709277F1BFE406446A2B27243C1
:1026C000801A00D20139220C7243130C1204821AB0
:1026D00099410B007046043513370100F940A840BA
:1026E000801900D30131002B02D1A2420AD2F0BDE1
:1026F000013000D30131121BFAD2013BF8D1A242C2
:1027000000D2F0BD013000D30131121BF7E7F0B564
:102710001C0C00D080E00CB400251C0A04D11B0264
:10272000160E3343120208351C0B04D11B01160F81
:102730003343120104359C0B04D19B00960F3343A5
:1027400092000235DC0B02D192185B4101351C006E
:10275000971864410134464F7C66464C3C660E0C2B
:10276000FFE7FFE7FFE7C0463C6F6643360C7703A1
:10277000BE4697B27743C01B00D20139C01B00D2BE
:1027800001399FB27743C91BC91B170C77437E04DD
:10279000FF0B801BB941CE086643360C0C2D33DB92
:1027A000B644120B1F053A431B0B97B27743C01B6D
:1027B00000D201399FB27743C91B170C77433E04FF
:1027C0003F0C801BB941860D8F023E43664329278B
:1027D0007F1BFE400C3D7746AF40BF1930BCA2B214
:1027E000ABB272437343801A9941220C7243130CAB
:1027F0001204801A994102000B000137001BA94105
:10280000F9D2781E0021F0BD0C277F1BFE407746D1
:102810007F0BAF40FF19E0E700245D1C07D0144F89
:102820007D663966FFE7FFE7FFE7FFE73C6F95B29C
:102830009EB265436643401BB141150C1E0C6543B7
:10284000664336042F0C3E432D04401BB141994290
:1028500004D202000B0020000021F0BD01D1904203
:10286000F7D3801A994101349942F2D3F6E7000078
:10287000000000D0FFFFFFFF48404140484018B42F
:102880001B4B5B68FC46019308BD04DF132B021051
:1028900018B4174B1B68FC46019308BD00DF1D2BC5
:1028A00002109446134A926F920809D2624618B4F5
:1028B0000F4BDB68FC46019308BD0CDFD52D0210E1
:1028C0000C4AF0B5146E556E576F166F6246FFF7DF
:1028D000EEFF084A1466556657671667F0BD18B4D0
:1028E000034B9B68FC46019308BD08DF792C02105E
:1028F000100D0020000000D0FFB550404240504075
:1029000059404B40594000E0FFB5154F4C00640D55
:1029100003D0BC4204D10C0314D80020090D0905D2
:102920005C00640D03D0BC4204D11C030AD8002211
:102930001B0D1B0501264B4009D44B4003D58B4290
:1029400000D18242FFBD9942FCD19042FFBD0B43B2
:10295000DB1803431343F5D0C9434918FFBD0000FA
:10296000FF07000000B5FFF7CFFF804100BDC04664
:1029700000B5FFF7C1FF01D9002000BD012000BD57
:1029800000B5FFF7B9FF804100BD012040054A00B6
:10299000121804D85A00121801D8002070470120DC
:1029A000704700000021002805D17047C11748403A
:1029B000401AFAD0C90713B5064B1B6898470CBCE0
:1029C000441CA2401005120B0349091B09051943B9
:1029D000114310BD081400201F04000010B54C0066
:1029E000620D8023D218DB00D21A5B057E2A10DD2F
:1029F0009E3A13DACC170903490819435242D140D1
:102A0000640001341532202A05DAD04008436043BF
:102A100010BD002010BD0846604310BDC80FC0188F
:102A2000013810BD18B4044B5B6AFC46019308BD25
:102A300024DF852F02100000100D0020132370B535
:102A40001D78012D19D014DD1F48FFF797FB0600F4
:102A50001E48FFF793FB1E4C80223100200000F03F
:102A60005FFB022D2DD01B48FFF780FB1A4B18602F
:102A700070BD1A4B164CA364F5E7184B144C236039
:102A80006360A360E36023616361A361E361236228
:102A90006362A362E36223636363A363E363236408
:102AA0006364A364E36423656365A365E3652366E8
:102AB0006366A366E36623676367A367E367A3644C
:102AC000D1E7064BA364CEE7534400005346000011
:102AD000100D00204C33000008140020E12A0210E1
:102AE00007B5604601880A0A0230DF2AFAD1C9B266
:102AF000820804D3028840880004104300E0006884
:102B0000014A5050039007BD100D00200FB403BCC4
:102B10000CBCF0B50124E407634000E0F0B50C0DF7
:102B2000CF0F661E3605891B640503D3C943404297
:102B300000D30131640D03D0661CF60A07D0E41BF4
:102B400000207F00791C89078912803C24031D0D19
:102B5000DF0F6E1E36059B1B6D0503D3DB43524210
:102B600000D301336D0D03D06E1CF60A07D0ED1BA8
:102B700000227F007B1C9B079B12803D2D032F1B97
:102B8000661B58D4A446202E46DA20371400BC40D9
:102B90001D00BD40F24033412A4380185941CB0FFC
:102BA00005D0C943C04300226442504151416246AE
:102BB0004D0D28D10D0D07D100281FD024194041FB
:102BC0004941013A0D0DF9D0640006D3013000D31C
:102BD0000131002C01D140084000013A0BD4941C73
:102BE000E40A04D112051144DB071944F0BDD907EA
:102BF000204B194300E0D9070020F0BD0029DDD1AA
:102C0000002CDBD1F0BD0132C6074008CD072843B8
:102C10004908002EE1D0D9E73C2E29DA203E403782
:102C20001400BC4000D00124F24014431A00BB4001
:102C30001C43D317ACE7AC46202F08DA203604003B
:102C4000B4400D00B540F84039412843A5E73C2F7A
:102C50000CDA203F40360400B44000D00124F84094
:102C600004430800B1400C43C117EAE71000190003
:102C7000002494E70000F07FF0B50C0D661E3605C9
:102C8000891BE60A6405640D02D0651CED0A04D0B8
:102C9000002001210905803C2403A4461C0D671E69
:102CA0003F05DB1BE70A6405640D02D0651CED0AD5
:102CB00004D0002201231B05803C24037740644498
:102CC00097B484B296B27443070C7E43150C6F43DD
:102CD00080B26843361802D3012000043F18300444
:102CE000350C00197D41844688B29AB250430C0CD1
:102CF00062431F0C7C438EB27E43921902D301269D
:102D00003604A4191604170C3618674101BC81B2A9
:102D10009AB25143040C62431B0C5C4380B258438B
:102D2000121802D30120000424181004130C4018B8
:102D300063412D185E410020474106BC88B293B222
:102D400058430C0C6343120C544389B251435B1833
:102D500002D301210904641819041A0C09186241EC
:102D60006D1856410020474118BCF902720D1143FD
:102D7000F0026A0D1043ED020A0D03D16D194041B6
:102D80004941013B124E9B1B7600B3420ED26D00AF
:102D900007D30130002671416646354301D1400812
:102DA00040001B05C918E4072144F0BD0BDA0133CC
:102DB00006D1013004D101314F0D01D04908F2E7AD
:102DC000E1070020F0BD013631050020EBE70000EF
:102DD000FF030000F0B51C0D671E3F05DB1BE70A73
:102DE0006405640D02D0661CF60A04D0002201239B
:102DF0001B05803C2403D0252D060026F6432E66B5
:102E00001E096E66CE0FF619B44649004F0D02D06A
:102E10007E1CF60A03D000200021403F3F033E1BEA
:102E2000B600B444013F7F05C91B49082E6F013627
:102E300076089C02950D25437543ED137543AD133C
:102E400001356D10F603761B0CB4CC02450D2C43F6
:102E5000A2B2B3B25A43270C7B43350C6F43A4B2E2
:102E60006C431B1902D3012424043F191C041D0CBC
:102E7000A4187D4124196D41009A91B2ACB261430E
:102E8000170C7C432B0C5F4392B25A43A41802D315
:102E900001221204BF182204230C52187B41019C0A
:102EA0006C431B19520ED9010A434401A01A81B286
:102EB000B2B2514303145A43360C734387B277437B
:102EC000D617D21900277E4136049B191704160C19
:102ED0007F185E417316ED18F301002680337541AB
:102EE000A90F06D16400690AE8055B0A184309D2F4
:102EF0002FE00422944480337541A90AA8059B0A57
:102F0000184326D3404149412404009A019B0D00F7
:102F10005543641B4343E41A95B286B27543170CBC
:102F20007E43030C5F4392B25A43B61802D3012288
:102F30001204BF183204330C52197B4152429C4197
:102F4000002C02D40022013051414008CA0710432E
:102F5000490802B06246D7079210084BD218084BB6
:102F60009A4203D212058918C919F0BD0020002A1F
:102F700001DC3900F0BD01331905F5E7FD03000060
:102F8000FE070000002200B5203200F004F808001F
:102F900000BD000000220B150AD410B5944600F0C5
:102FA00031F81414013400DA0021CB17144C2047F7
:102FB0000020002170476244343A0CD40C2A07DA0E
:102FC00004009140904052422032D440214310BD31
:102FD000D843D94310BD203207D40C469440524206
:102FE00020321141D040204310BD0800C9172032C3
:102FF00003D452422032104110BD1800190010BDF8
:10300000B72F02100A0DCC0F531E1B05C91A52050B
:1030100003D3C943404200D30131520D03D0531CA6
:10302000DB0A07D0121B00206400611C890789128B
:10303000803A1203014BD21A70470000FF030000D0
:1030400051434343C9188C46110C83B24B4310B40F
:10305000040C614392B280B2504362431C041B0CC7
:10306000001910BC59411304120CC018514161449D
:1030700070470000132310B512481C78FFF77EF844
:103080000100012C0AD003DD80220F4800F048F82F
:103090000E48FFF76BF80E4B186010BD0A4C542217
:1030A000200000F03DF80B4B6365A365E3652366E4
:1030B0006366A366E36623676367A367E3672362C8
:1030C000E361E5E753460000100E00204C3300009A
:1030D00008140020D930021007B5604601880A0A9A
:1030E0000230DF2AFAD1C9B2820804D302884088AC
:1030F0000004104300E00068014A5050039007BDEF
:10310000100E002001480421014B1847D001002077
:103110008D210210014B1B6818470000D0010020D0
:10312000014B5B6818470000D00100209A4200D292
:10313000885470477047C046F8B55746DE464E463D
:103140004546E0B599460A9B07009A460D9B88467E
:1031500093460B9C9B073BD10C9B9C423DD21E1B74
:103160000B9415000C005E442A004B4601352100EB
:103170002020B847B542F7D1A0460B9C002C20D0A8
:10318000454636195346321B013C185D29004B4613
:10319000B847002CF6D12B00350098460D9B9B07B5
:1031A0000FD55B46EC1A0C9BA3420AD946469846BB
:1031B0002A004B46310020200134B84701354445F0
:1031C000F6D32800F0BCBB46B246A946A046F8BDDF
:1031D00016001500002CD3D1E0E71600002CCFD14B
:1031E0001500EEE7F0B54F464646D646C0B584B06A
:1031F00098460EAB1B7894469946129B0D9C109FE7
:10320000119E9A0725D4002E65D1BC4221D20122FD
:103210001A409246202C00D1E9E00C9A551E30222B
:1032200002E0202C00D17BE001342A55A742F8D8D7
:103230005246002A0DD0B4420BD20C9A551E3022B1
:10324000202C02D171E0202C2DD001342A55B4421B
:10325000F9D1DA063CD55A052ED4002C28D10F9A84
:10326000102A00D1B6E0022A00D1BCE030220C9C2A
:10327000227001244A46002A65D15A0700D499E0F9
:103280002B220C9D2A55013403930C9B624600931C
:10329000029643460194FFF74FFF04B0E0BCBA46E4
:1032A000B146A846F0BD2024DA06EDD55A0503D470
:1032B000A74266D0B44264D00F9A102A71D0022A75
:1032C00057D0202CE0D02200013430250C9FBD5473
:1032D000202CD9D0CEE7012215001D40AA461A4263
:1032E00036D04A46002A4AD10C321A4247D1BC4253
:1032F000A1D2202C91D1202E17D82024DA06C3D5B4
:103300005A051BD4202F01D0202ED5D11F220F9D6E
:10331000102D6FD0022DD8D162250C9FBD54D0E75F
:103320005246002A79D0202EBDD92024DA06ABD50A
:103330005A0503D4202FE9D0202EE7D00F9A102A67
:10334000A2D12024A0E72D220C9D2A5501349BE711
:10335000BC4200D37DE7202C00D05EE7DA06F0D532
:103360005A05EED4202F62D0202EEAD134001F223D
:10337000CDE7202C00D187E722000134CCE7013EC5
:10338000B5E7621E012CC2D10F9A102A00D06AE75D
:103390009A063BD558220C9C2270283A627002246F
:1033A00068E79A060ED4202CCBD078220C9D2A55A3
:1033B000013486E71A0700D466E720220C9D2A55BF
:1033C000013461E7202CBCD058250C9A12191570D5
:1033D000013476E79A0608D558220C9C22703022D8
:1033E0006270022446E76032F7E77822F5E7002AA8
:1033F00083D1B3E7A21E013C9D0603D478250C9F20
:10340000BD5460E758250C9FBD545CE778220C9CA6
:103410002270483A627002242CE7DA0600D433E7BF
:103420005A058BD4202F00D044E71F226FE73C00C1
:103430001F226CE710B5002800D110BD01F058FB29
:10344000FBE7C0460B0010B5002802D049681B6896
:10345000984710BDF0B557464E464546DE46E0B5A6
:1034600099B08246894690460893229A239B100081
:103470001900FFF78AFA002800D0CDE0229823999E
:103480000122D94B5242FFF77BFA002800D0C3E05B
:10349000229823990122D54B5242FFF763FA002864
:1034A00000D0B9E02298239900220023FFF75AFAAE
:1034B000002800D0F1E1229E239F8023269ADB0082
:1034C0001A400D92269A1A4201D106232493802392
:1034D000269A1B011A403B0093460996334300D0BD
:1034E000B3E0002A00D0C2E1002300240A930B9429
:1034F000002304250993259B0024AB4200D95C1BC3
:103500000223269A1A400C92269A134203D06B4249
:103510006B415B421C40099B002B07D00A9A0B9B16
:1035200030003900FFF7BDF906000F0022982399FB
:1035300000220023FFF716FA002803D08021090695
:103540007B181F00269AAA4B009601971340089EED
:103550000493249B03940293424633004946504609
:1035600000F0AAF90400002D67D02020269A4946D1
:10357000024013005A4253415B42621C18400A92B7
:10358000330022004530D047099A6F1ED317D41854
:103590005C40D30F9B46002501E0202D13D008AAE4
:1035A00094461F23200063440A2101355E19FEF76B
:1035B0002BFF3031317020000A21FEF725FF260055
:1035C0000400092EE9D805230693002304930A3347
:1035D00003935B46089E029310AB0A9A00934946F8
:1035E0003300504605970195FFF7FCFD0C9A040047
:1035F000002A22D04246851A259AAA421DD9B046F1
:103600005746160022004346494620200135B84758
:103610000134AE42F6D810E0269B42460493259B27
:1036200049460393249B50460293229B239C00937C
:103630000194089B00F040F90400200019B0F0BC90
:10364000BB46B246A946A046F0BD6A4B78009C46F0
:10365000400D6044FFF7AAF9674A684BFFF73FF94E
:10366000674A684BFFF714F9674A3B031B0B1A4381
:1036700004000D0009981100644B0022FFF7FFF8C9
:10368000634A644BFFF72BF902000B00200029006E
:10369000FFF7FEF8FFF7A2F90990FFF787F95E4AF6
:1036A0005E4B04000D00FFF71AF900225C4BFFF798
:1036B000EFF8FFF793F95B4A5B4B29000C90200071
:1036C000FFF70DF904000C980D00FFF76FF9574A4A
:1036D000574BFFF704F902000B0020002900FFF709
:1036E000CEF804000D0002000B000A940B95FFF7C2
:1036F000F6F804000D000A980B9902000B00FFF782
:10370000C7F800220E900F914A4B20002900FFF7C6
:10371000C8F80022484BFFF7BBF802000B0020005E
:103720002900FFF7BEF80022444BFFF7B1F8020072
:103730000B0020002900FFF7B4F80A9A0B9B0D003C
:1037400080210400C9050020FFF799F802000B0052
:1037500020002900FFF79CF802000B000E980F993B
:10376000FFF79FF80022284BFFF792F8344B0C9C90
:103770009C46644423050022FFF7B1F804000D00C5
:1037800002000B00300039000A940B95FFF7EAF8AD
:1037900000285DD123002A00C625099963318D4296
:1037A000AD4159466D420435002900D1A3E61343CB
:1037B00063D030003900234A234BFFF7D9F80028A3
:1037C00007D0002230003900204BFFF7CBF800284B
:1037D00053D1249B002B00D18DE60D9B5A1E9341A3
:1037E000249AD31A249386E6FFFFEF7FFFFFEFFFB3
:1037F000FFF7FFFF01FCFFFFFB799F501344D33F0E
:10380000B3C8608B288AC63F0000F03F0000F83F35
:1038100061436F63A787D23F71A379094F930A4031
:103820000000E03F1655B5BBB16B0240EF39FAFE20
:10383000422EE63F00002C400000244000001840CB
:10384000FF0300002D431CEBE2361A3F80842E411B
:10385000099B0022013B09932000164B2900FFF72A
:1038600020F80A00010003000A910B9294E700235C
:1038700000240A930B9400230993249A099B9A42EB
:1038800014DDD31A013B24938023269ADB001A43CC
:1038900000230025269209932DE6802212069446E5
:1038A000229B1E00239B63441F0006E600232493F3
:1038B000EAE7C04600002440F0B54546DE464E46E5
:1038C0005746E0B595B08B46904699461E9A1F9B89
:1038D0000A9019001000209DFFF757F8002800D02B
:1038E000B0E11E981F990122C74B5242FFF73AF8E8
:1038F000002800D037E11E981F990122C34B524285
:10390000FFF73EF8002800D0A7E01E981F9900227C
:10391000BF4BFFF735F8002800D088E01E981F99AC
:103920000022BC4BFFF71EF8002800D07FE01E9855
:103930001F9900220023FFF715F8002800D0FAE0B5
:1039400000230B938023229C229ADB001C401A4206
:1039500000D102E1092D00D87CE106A98C462C009B
:10396000172200233021093C62440133D154EF1A5D
:10397000202B00D132E1A342F7D10022A44B0692C2
:1039800007931E981F99FFF729F80500FFF70EF817
:1039900002000B001E981F99FEF771FF069A079B05
:1039A000FEF79DFF08900991FFF73CF80600FEF72F
:1039B000F9FF02000B0008980999FEF760FF00224A
:1039C000954B08900991FEF7DBFF002800D1D2E06B
:1039D00001363000FEF7E6FF069A079BFEF7C8FFA8
:1039E000002801D000260135AA46002F00D098E01B
:1039F0002800FEF7DBFF02000B001E981F99FEF760
:103A00003EFF854B002206000F00FEF7ABFF0CAB1C
:103A10009A46002845D10022300039007E4BFEF73F
:103A2000AFFF00283DD1EB073BD5013539E0229BA4
:103A300042460493219B594603930A981E9B1F9C60
:103A40000295009301944B46FFF704FD15B0F0BCBE
:103A5000BB46B246A946A046F0BD229B5B0767D491
:103A600003226E4B229901920391219902910093B6
:103A700042464B4659460A98FFF75EFBE6E706AA20
:103A800094461723280063440A2101341E19FEF7C7
:103A900093FC3031280031700A21FEF78DFC051EA1
:103AA00076D0202CEBD10323229A1340012B1DD179
:103AB000219B002B1AD00B9B002B00D0BBE0229A3D
:103AC0000C33134200D0B6E0219BA34200D887E01C
:103AD00006AB9C4617223023624404E0219901344E
:103AE00013558C4259D0202CF8D12024229B0194CC
:103AF0000393219B02935346B9E706AA94461723E2
:103B00000A216344300001341D19FEF77DFC303179
:103B1000297030000A21013FFEF776FC092E46D9B4
:103B20000600202CE9D155460CAB20249A46B8E774
:103B300004223B4B96E71E9A1F9B00200021FEF7B4
:103B40009EFE01230B938023229C229ADB001E9071
:103B50001F911C401A4200D0FCE60022314B062780
:103B6000069207930DE7229B0393219B0293042364
:103B700001932D4B7BE7002208980999264BFEF70D
:103B8000F1FE002800D02FE7002E4FD101362BE7A1
:103B90000323229A1340012B66D0202CA6D00B9B26
:103BA000002B1FD02D235246135501349EE7554656
:103BB000202CB9D030233A19002F08D0172006A99D
:103BC000013409180B55202CAED09442F6D10CAB21
:103BD0009A462E2352461355013462E72024CCE640
:103BE000202C83D0229B5B0708D4229B1B0700D488
:103BF0007CE7202352461355013477E72B235246A6
:103C00001355013472E7C046FFFFEFFFFFFFEF7F60
:103C100065CDCD4165CDCDC10000E03F045B021014
:103C2000FC5A021080842E410C5B0210F30700D472
:103C3000DAE60136D8E6219B013B2193A34200D965
:103C400046E7AAE7229B0393219B02930323019358
:103C5000074B0CE7074BEA009B185C681B682F00BA
:103C60000693079400248CE6219B002B95D022E735
:103C7000085B0210485D0210F0B55746DE464E461E
:103C80004546E0B5A5B01F002E9B91460D93CA4A4C
:103C9000CA4B82468B461A60002900D129E20023D4
:103CA00038789846002800D12BE2C54B44460C9347
:103CB000C44B55464E460E930AE0631C98462200BC
:103CC00033005946A84744463878002800D187E099
:103CD00001372528F1D108239A46043B9946023B37
:103CE0009846013B00229C460B943878791C0300CF
:103CF000203BDBB2102B03D80C9C9B00E3589F4663
:103D00000300303B0B9C0B92092B3AD900239846B9
:103D10002A2800D1DDE000239A462E284BD003004C
:103D2000683BDBB2122B1ED80E9A9B00D3589F46DD
:103D300063460F001A43D8E743460F001A43D4E7FF
:103D40004B460F001A43D0E710230F001A43CCE76D
:103D500053460F001A43C8E780235B000B9A78781C
:103D60001A430B9201310F0067284FD82428A4D999
:103D70000300253BDBB2422B9FD893499B00CB58D5
:103D80009F46002398460B9B47469C4600E0013126
:103D9000BB00DB195B001F180878303F0300303B85
:103DA000092BF4D963460B930023B8469A460F00BB
:103DB00001312E28B3D180200B9AC00002430B9210
:103DC00030225242944678780B0084446246092A95
:103DD00000D8AAE12A2800D1B9E10F0001319EE7FD
:103DE000A046AA46B146C84503D301235B424B44D3
:103DF00098464B46424659460020D047200025B001
:103E0000F0BCBB46B246A946A046F0BD01006939E8
:103E1000C9B20F2900D950E701238B409C466B4B58
:103E2000994663464A4613400F9362464B461A42F0
:103E300000D068E10A2956D0072900D03DE70D9B44
:103E400002CB9846002900D092E10B9B10211A006A
:103E50008A43100011310843814680201A00C000B7
:103E60000240110003421CD114AB9C461F220F23B9
:103E700062440D959C4615000F9B0B9402E0202B8D
:103E80000CD0110064460C4020003730092C00D8BB
:103E900007380133E8540A090F29F0D80B9C0D9D0F
:103EA0000F934B460822069353460592083203921D
:103EB000002204930F9B029201931CAB22000093FB
:103EC000594633002800FFF78DF9434604000D934F
:103ED000FAE60D9B04CB9046002A79DB78780D93A7
:103EE0000F00013117E70D9B02CB14930B789C4612
:103EF00018005346002B00D134E1002815D053465A
:103F0000013B013399460D940B9C89444A460B00B2
:103F1000A14601E0934203D05C780133002CF9D133
:103F20004A465B1A0D9C0B920F938023DB00994647
:103F30000B9A13400D934B461A4204D00F9B5345E6
:103F400001D953460F93022399460B9A13400B93C2
:103F50004B46134200D1F5E16346002B00D1D6E178
:103F60000D9B002B00D182E10B1BD14631009A46FC
:103F70003B00A1442E005F464D4622009B468946E9
:103F800009E04B463900541CB0475346185D0028E1
:103F900000D192E122009542F3D14B465A46A94600
:103FA000BB46350017001E004C460B9B002B00D073
:103FB000ADE1149B0D9387E6793C0210D8130020E5
:103FC000AC5B0210F05B02103C5C02104190000000
:103FD0000B9A283802430B92424652427878904618
:103FE0000F000D93013196E678786C2800D15DE1E1
:103FF00080230B9A5B001A430B920131B3E68023B6
:104000009B00ABE67878682800D148E180230B9AC2
:1040100001311A430B92A6E6672800D1B2E0472887
:1040200000D11AE1452800D11CE10B9A0721049226
:1040300042460D9B0392073352468B43190002926E
:104040000CC92800009201930D91220033005946BB
:10405000FFF700FA040037E6462800D18DE00B9AFE
:104060000721049242460D9B0392073352468B432D
:10407000190002920CC92800009201930D912200B0
:1040800033005946FFF718FC04001DE6631C9846F0
:104090002200330059462520A847444614E60D9BCC
:1040A00004330F93631C99460B9B9A0700D40AE1D3
:1040B0000D9B2200187859463300A84743464444D4
:1040C000012B00D86FE1B0462E0025004C46B946C2
:1040D0005F4622004346013439002020B047AC42FD
:1040E000F7D12C00BB4635004F4646460F9B0D933B
:1040F000EAE5D64B38789A4600239846002800D047
:10410000D3E500246FE66F2842D000D8FDE11023EC
:10411000782800D19BE00B9A9A430B920A239C4685
:10412000002314930A330F9338E057460B9AB900D3
:10413000C919490001330F181878303F0100303990
:104140000929F4D9BA460B921F00591CE7E50D9BCB
:10415000B87804CB0237D143C9170A4092460D9371
:10416000791CDCE5002800D1DFE602235B42C8E6CB
:1041700021200B9A0243914676E620230B9A1A439C
:104180000B926CE780230B9A1B011A430B924CE7AE
:1041900008239C460023149308330F930B98802325
:1041A0000200DB001A4011000200184200D080E03B
:1041B0000C239A431000802302009B001A400B92AC
:1041C000184200D0F1E0802302005B001A409146C3
:1041D0000D9A04321492184200D0C3E2430600D56F
:1041E000D7E0030600D421E30D9B1B880993002B25
:1041F00000D02DE110339843002900D128E100239D
:10420000994643460593534604930F9B06900393A8
:10421000002302934B4601931CAB220000935946A6
:1042200033002800FEF7DEFF0400C2E6582809D05C
:10423000622800D0E3E202239C4600231493023359
:104240000F93ABE720230B9A1A430B92103B9C462B
:104250000023149310330F93A0E780230B9A1B01C4
:104260001A430B9220230B9A1A430B92DDE60B1B89
:104270009A460F9B99463B0037005E469B462200BC
:104280003B003100A84753460134185D0028F6D1A1
:104290004B460F935B46B3463E001F0085E6C023A6
:1042A0000B9AB8781A430B92F91C5CE5C0239B006B
:1042B000F6E70D239A4310007DE75B463500BB46C9
:1042C0004E461F0071E64346012B66D9631E4344E8
:1042D00032002E001D003B00A2465F4691469B46E1
:1042E00022004B46013439002020B047AC42F7D1C0
:1042F0005B463500BB464E46A14654461F000D9B0B
:104300004A461878594633004444A847EEE60F9BC6
:10431000A146984500D84CE64444E41AB0462E0025
:1043200025004C46B9465F46220043460134390019
:104330002020B047AC42F7D12C00BB4635004F4699
:10434000464636E60F98804500D873E24346E218A9
:10435000131A32002E001D003B0091465F469B461B
:104360000F9122004B46013439002020B047AC4267
:10437000F7D15B46BB461F0043460F9901330F93AD
:104380000B7835009C464E466046002800D0E7E595
:104390000FE60D9B1B78099329E70D9B22001878E7
:1043A00059463300A8474C46A0E60D9AFA3BFF3B1E
:1043B00007329A430133994691444B460D93136853
:1043C000526815921A4306D1103290430022099286
:1043D000002900D083E06122810600D54122D2B2BB
:1043E0000A9214AA91460A9A00210A3A0B9242466E
:1043F0001792524618925A46B24609911E001F3132
:10440000149B4944BB4616941A9500246746984667
:104410008946159D19901B920AE03032D2B24B4664
:1044200001341A55A8454CD0202C4CD006000D0064
:104430003A00002330002900FEF724F8D2B2092AFE
:10444000EBD90B9B9C466244D2B2E8E735310210AF
:104450006123820600D54123DBB20A3B0B9343461E
:1044600014A91F228C46159353466244B2460D94FC
:1044700017974C468046A9461700099D0F9E169334
:1044800008E03033DBB201343B55B5420ED3202C6B
:104490000CD0050031002800FDF7B6FFCBB209298A
:1044A000EFD90B9A94466344DBB2ECE7159B404688
:1044B0009846169B4D465646A1469A460D9C179F18
:1044C0009FE6B742B0D9179B56469846189B5F4661
:1044D0009A461B9B09949B46169C19981A9D434625
:1044E0000593534604930F9B069003930023029376
:1044F000099B01931CAB220000935946330028000E
:10450000FEF770FE0400FFF7DFFB10230B9A9A43BF
:104510000F92692800D091E10B9980230A00DB00FB
:104520001A4010000A00194203D0112118008A43D2
:104530000F920F9A802311009B0019408C461A425B
:104540005BD1802311005B00194089460D9904312D
:104550000B911A4200D0B2E013005B0600D4EDE0EC
:104560000D9B1B781A00D90F0D91002B00D1A3E0F1
:10457000100014AA944642461F23159252466344E3
:10458000A846BA464D461494B14604001F00169240
:1045900001E0202D0FD020000A21FDF735FF013565
:1045A0007E193031317020000A21FDF72DFF2600E1
:1045B0000400092EEDD8159B4E46A946454698465F
:1045C000169B57469A46149C0F9B069343460593A9
:1045D000534604930A2303930D9B02934B46019386
:1045E0001CAB22000093594633002800FEF7FAFD69
:1045F0000B9B04000D93FFF767FB07220D9B07330E
:104600009343013294469C4462460D920CCBD90FE1
:104610000B911100194300D19BE0D917139112910E
:104620005140109113995940119110981199129A73
:10463000139B801A99411090119114AA94464246F6
:104640000023159252469946169232001F33634456
:10465000A8464E46BA4614941F00109C119D9146E0
:1046600001E0202E10D0200029000A220023FDF7AF
:1046700009FF013630322B00BA550D00220004002C
:10468000002BEED1092AECD8159B109411954546C4
:1046900098464B46169AB14657461E009246149CC1
:1046A0000F9B069343460593534604930A230393B3
:1046B0000B9B02934B461CE7002885D159E70D9BC5
:1046C0001B68DA0F1100002B00D1A6E0DA1798184A
:1046D000504014AA91461F2342464B44A8460D94CD
:1046E000169704006546B1461F001491159201E02B
:1046F000202D0FD020000A21FDF786FE01357E19FE
:104700003031317020000A21FDF77EFE26000400C2
:10471000092EEDD8159BAC4645469846149B4E464F
:1047200019000D9C169F0F9B02910693434605931B
:10473000534604930A230393634650E713001B0672
:104740006ED50D9B00229B5ED9175A184A4092B233
:1047500009E7002399460028A2D1002200231092E5
:1047600011936AE70D9B1B689946002B03D1103308
:104770009843002938D16123820600D54123DBB25A
:104780000A3B0D9343461693534614A91F228C46A9
:1047900017932B0062444D46B246159418978046F5
:1047A000170099460B9C0F9E08E03033DBB20134B2
:1047B0003B55B5420ED3202C0CD00500310028000B
:1047C000FDF722FECBB20929EFD90D9A9446634436
:1047D000DBB2ECE7169B40469846179B56464D4683
:1047E0009A460B94189F159C434605935346049391
:1047F0000F9B06900393002302930B9B0BE50B99F1
:1048000080230A00DB001A4010000A00194200D081
:104810008BE610239A430F928BE6002883D158E74A
:104820000D9B1B68D9175A184A409CE60D9B1B68C4
:104830000993DCE4030001330F93A5E50B926DE4CB
:1048400010B5054C82B0009313000A00010020004F
:10485000FFF712FA02B010BD2D31021000B585B07D
:104860000391012102900093034813004A4202A9D8
:10487000FFF702FA05B000BD4534021010B5094A31
:104880000300146884B0002C08D00122009106486F
:10489000524203A9A047012004B010BD00F074F9F2
:1048A0000020F9E7D81300203534021000BEFDE7E0
:1048B00010B5FFF7FBFFC04670B5FDF7A5FC074D2F
:1048C000074EB54209D20024013E761BB60808CD3A
:1048D000984723000134B342F9D170BD340200205F
:1048E00040020020030010B5080011001B68984723
:1048F00010BDC046F0B5C64600B5437D07000D00AB
:104900001600002B38D0002A2EDD00216A1E9046AA
:104910006A5C037D4C1C00200A2A0CD0A64216D0EB
:1049200043461B5D21000D3B5A4253416A5CDBB29A
:104930004C1C0A2AF2D1002BF0D1884217DB02214D
:1049400010483B689847A64207D02000E8E7864217
:1049500003DD311A3B6828189847AD19013D2B78C3
:104960000D3B5A4253413B7580BCB846F0BD091A15
:104970003B6828189847E2E7036811002800984729
:10498000F2E7C046985D0210F0B5C6460B68060017
:104990000C0000B5802B06D05A1C2260E41826714A
:1049A00080BCB846F0BD0F4B1D68002D16D00B1D06
:1049B00098460D4F02E02D69002D0FD02B68002B7B
:1049C000F9D03B68002B01D0AB42F4D1280041461E
:1049D0002268FFF78FFF2D69002DEFD10122002300
:1049E000DBE7C046D00F0020D4130020F0B5DE4630
:1049F00057464E464546E0B585B017001C000600F8
:104A00000D00FDF749F90023314A12184B4180216E
:104A100009068B4202D301222E4B52422E49080036
:104A20008A4601F00DF801906B1C03D1300000F0B4
:104A3000BFFF0500002C26D0284B9846284B1C6849
:104A4000002C15D0002F21D1264F02E02469002C24
:104A50000ED02368002BF9D03B68002B01D09C427C
:104A6000F4D120002A003100C0472469002CF0D185
:104A7000019B002B28D1280005B0F0BCBB46B246F4
:104A8000A946A046F0BD184B9846D7E7154B994666
:104A900002ABDF1D0A239B4602E02469002CE7D00D
:104AA0002368002BF9D04B461B68002B01D0A34292
:104AB000F3D12A0031002000C0475B4601223900B3
:104AC00020003B70C047E8E7504600F0A1FFD2E766
:104AD00040420F00FFFFFF7FF0010020F548021069
:104AE000D00F0020D4130020E548021000207047AA
:104AF000F0B5CE46474680B583B06B460600DD1D57
:104B00002870FDF7C9F800231A4A12184B4180217A
:104B100009068B4202D30122174B52421749080063
:104B2000884600F08DFF164B81461C68002C14D07F
:104B3000144F02E02469002C0FD02368002BF9D019
:104B40003B68002B01D09C42F4D1200001222900B7
:104B5000FFF7D0FE2469002CEFD14B46002B05D186
:104B6000300003B0C0BCB946B046F0BD404600F0CE
:104B70004FFFF5E740420F00FFFFFF7FF0010020ED
:104B8000D00F0020D413002070B5040000F010FFF7
:104B900001230100050001222000FFF727FF084B39
:104BA0001C68002C06D06368002B05D09847246948
:104BB000002CF8D1280070BD2469002CF3D1F9E74E
:104BC000D00F0020F0B5CE46474680B5A3B0040014
:104BD0000D00FDF761F80023294A12184B4180218E
:104BE00009068B4202D30122264B5242264F38003F
:104BF00000F026FF00230600019322002B0023482B
:104C000001A9FFF72BFE019B8046002B14D1204BFE
:104C10001C68002C06D06368002B0BD098472469D1
:104C2000002CF8D1002E25D1404623B0C0BCB94697
:104C3000B046F0BD2469ECE7154B1D689946002D80
:104C40001CD0144C02E02D69002D0FD02B68002BD6
:104C5000F9D02368002B01D0AB42F4D12800019A8F
:104C600002A9FFF747FE2D69002DEFD14B460195B4
:104C70001C68CEE7380000F0CBFED5E70195D1E700
:104C800040420F00FFFFFF7FF00100208949021022
:104C9000D00F0020D41300200FB400B583B004A9B6
:104CA00001C90191FFF78EFF03B008BC04B018479B
:104CB00002781300303BDBB2092B01D9373AD3B26B
:104CC000427810003038C0B2092801D9373AD0B242
:104CD0001B01C018C0B270477047C0467047C0463D
:104CE0008022054BD20510B500211A600020002259
:104CF000FDF7E6F9FEE7C04600B005400FB4F0B599
:104D0000C646802100B5C2B048AB04CB02AC20003F
:104D100049000193FFF794FD2378002B1CD0124E1D
:104D2000124932688846124D08E07F2A03D8511C88
:104D3000AB540A0031602378002B0DD001340A2BCC
:104D4000F3D1002729004046AF5400F0EDF9237855
:104D500000223760002BF1D142B080BCB846F0BCD5
:104D600008BC04B01847C046940F00204802002039
:104D7000140F002010B5FFF7B9FE1920FCF79AFABE
:104D8000D0238022094C1B069204200008495A6255
:104D900000F00CFE00F068F8FCF71CFA012120007E
:104DA00000F0BAFAFCF718FAF8E7C046480200200B
:104DB000E00100207047C046F8B5CE464746984609
:104DC00080B5174889461700FFF766FF4346002B5A
:104DD00009DD3C00134DDE19217828000134FFF76E
:104DE0005BFFB442F8D10A20FFF782FE4B46002B4E
:104DF00004D13B78422B05D0462B0AD0C0BCB94623
:104E0000B046F8BD41460139C9B2781CFFF7D2FF60
:104E1000F4E7781CFFF74CFF0228EFD1FFF760FFA3
:104E2000145B0210245B0210012310B5074C82B002
:104E30000093052205330421200000F0E3F802224C
:104E40002100034800F030F902B010BD101400201A
:104E50004802002010B50520FDF7DAF8014B186074
:104E600010BDC046100F0020802210B5D2000549A9
:104E70000548FEF755F90548FCF76EFB0122044B87
:104E80001A7010BD00000210D40F0020C80F0020BF
:104E900031150020436801209B691B099843704726
:104EA0001021426893691942FCD11068C0B2704762
:104EB000436801209B695B09984370474268202042
:104EC00093691842FCD111607047C04643689869E5
:104ED0000007C00F7047C046037B8268002B01D1DA
:104EE0000133594001239340D0221206002901D0FA
:104EF000536170479361FCE70B680C4A5B690800DB
:104F000010B593420FD101238A6893400A7B002A8F
:104F100005D1D022120653610020002110BDD022FD
:104F200012069361F8E700219847F5E7D94E021081
:104F3000F0B5C64600B5036814005B692D4A07004A
:104F40000D0086B0934252D1012382689340027BC8
:104F5000002A42D1D02212069361FCF70FFD060011
:104F6000FCF79AFEA3009C46A44404900591614678
:104F70000023CA000498059912184B4180210906A4
:104F80008B4202D301221C4B5242012102911B4948
:104F9000300001970091FCF7F5FC002C19D0184B5C
:104FA000002698463B68A95DDB68434519D120225D
:104FB000786883691A42FCD10160711C20228C42FE
:104FC00007DD6E5C83691A42FCD1013106608C42B8
:104FD000F7DC06B080BCB846F0BDD02212065361A3
:104FE000BBE7380001369847B442DBDCF1E701212A
:104FF0009847B2E7D94E0210FFFFFF7FF94E02102B
:10500000BD4E0210F8B5160006AA12781D4F0273A5
:1050100080220D001C49040001608360476052003B
:1050200000210D30FEF776F8882200235200A350AD
:105030000432A35004323800A354182D05D8134B62
:10504000EB40DB0701D5124860601249FCF762FEB5
:1050500002212800FCF714F902213000FCF710F9B6
:10506000A068FCF727F90123A2689340D02212061A
:105070005362217B002902D153612000F8BD936166
:10508000FBE7C04600400340BC5D02101001100168
:105090000080034090D003007047C04610B5080060
:1050A000D1B2FCF7E1F810BD10B5012342608022B7
:1050B00004000160C360002152001030FEF72AF89E
:1050C000882301225B005242E250114BE218002378
:1050D0001360A322D200A21813600E4AA218136014
:1050E00092221201A21813600B4AA3500B4A1068B7
:1050F00051680B4AA2181060516093221201A35408
:10510000A2181361074B9060D1602000A36010BD0E
:10511000140500001C09000024090000505B021067
:1051200028090000E4010020F0B5CE464746894634
:1051300080B57F2A47DCA323DB00C718264B3D68D8
:10514000C3181E68AC1BB54203DA8024731BE4004D
:10515000E41A224B1B1BDC43E41723409A4232DA49
:10516000802398466B1CDC17A40DA44663449C0561
:105170006346A40D9044E41AA6422BD08A234146EC
:1051800045195B00E9543C60002A21DD7F23013A88
:1051900049469846914695339C46894443460A7849
:1051A0001A40631CDD17AD0D5B199B059B0D5B1B46
:1051B0009E420DD06546041962553B60894507D073
:1051C0001C000131EAE70020C0BCB946B046F0BD82
:1051D0000120F9E72C00D7E714050000FF030000C9
:1051E0008823F0B5C6465B000500C05800B500280E
:1051F0000BDD2E0010363300002134181A780133ED
:1052000089189C42FAD14B061ED1002328182E7C07
:105210006F7CC373A86803681C6812239846164BFA
:10522000A8449C421FD16B689E4202D080BCB84605
:10523000F0BDA868114A03689B68934218D13900F1
:105240004046FCF711F8F1E70D48FFF725FD0D4D3D
:10525000317828000136FFF71FFDB442F8D10A204B
:10526000FFF746FCE2E73B0042463100A047DAE7A1
:105270003A0041469847D9E7995002109D500210D4
:10528000285B0210245B0210F8B588235B0006003F
:10529000C05800280BDD350010352B0000212C18DC
:1052A0001A78013389189C42FAD14B0610D1002399
:1052B0003018357CC373B068124C0368124ADF683B
:1052C0003159974218D15C68104B9C420FD1F8BD00
:1052D0000F48FFF7E1FC0F4E297830000135FFF74A
:1052E000DBFCAC42F8D10A20FFF702FCEFE732000A
:1052F0002B001132A047EAE70122B847B0683159C4
:105300000368E0E724090000DD4C0210D94C0210CC
:10531000285B0210245B0210BE4BF0B54546984650
:10532000882357464E46DE465B009946BA4BE0B5A9
:10533000FA2604008A469B460027A1B08044B600A6
:10534000206803681B68984700283AD020680368E3
:105350005B689847E3680500012B00D1CBE0032B85
:1053600000D1B8E0002BEBD1FCF796FC8019794115
:105370000B008021020009068B4202D30122A74BB9
:10538000524241464B604B46E3580A60812B10DC89
:1053900049465A1CE31862501D74012A00D1FAE0F4
:1053A000022ACDDD237C02339A42C9D12000FFF7C7
:1053B0006BFF01232068E36003681B68984700289F
:1053C000C4D14346964A5868516A1D68E3688842CA
:1053D00000D9B7E0926AAA4200D2B0E0002B00D018
:1053E000B0E0002200234146A0680A604B600368D9
:1053F0008C4ADB68934200D089E10123E360534685
:10540000002B61D09222884B1201E518A2182B685C
:105410001068984258D0854A09E00133D917890DA0
:105420005B189B059B0D5B1A2B6083424CD0E118E7
:105430008E5C7F2EF1D9834246D00133D917890D76
:105440005B189B059B0D5B1A7E212B6031423BD084
:10545000834239D0E718B95CBA56002A34DB0133ED
:10546000DF17BF0DDA197F2392053340920D013B00
:10547000D21BDBB22A60002B26D00026B2466B4E30
:10548000E946B44690421FD06646A718BE5D4F4617
:105490003E7076B2002E17DB0132D617B60DB0463D
:1054A00042449205920D921B0126B046C2442A60E6
:1054B000C1445345E6DC7F2B06DC6A46200000F041
:1054C00051F9E368032B45D021B0F0BCBB46B2468E
:1054D000A946A046F0BD582808D193220023120106
:1054E000A3541032A35088225200A35029005846DA
:1054F000FFF7D2FB24E702061BD44B46E3585A1EA3
:10550000812A00D91CE7012B39D049465A1CE318DF
:1055100062501874032A00D112E7637C03339A4265
:1055200000D00DE72000FFF75BFE00234A46A350A2
:1055300006E78822803D5200A350257400E7884288
:1055400000D04BE75246002ABCD0012B00D159E7CE
:10555000032BB9D193231B01E35C002B2AD1113318
:10556000FF33E358002B47D000DDE5E0304B9C468D
:10557000304B64441A685B6822606360A4E70028CB
:1055800004D1227C63689A4200D1D1E002234A46CA
:10559000A3506574D4E6002D00D0D1E6A068214A5E
:1055A0000368DB68934200D103E7234AA158012234
:1055B0009847FEE61E4BE518194B69685A6A286839
:1055C000914200D980E79B6A834200D29BE09423FA
:1055D0001B01E1580131E1500A2900DD9CE0174828
:1055E000FFF75AFB932300221B01E254114B1A6868
:1055F0005B682A606B6067E7A321C9008846A04406
:1056000041468A270E4A0E68A01802687F0096421B
:1056100022D173E028090000385B0210FFFFFF7FF2
:1056200000400540DD4C02101C0900001C05000074
:1056300038090000505B021024090000445B02108E
:10564000140500000132D117890D52189205920DF0
:10565000521A0260964251D0A118CD5D7F2DF1D92A
:10566000B2424BD00132D717BF0DD1197F22890525
:10567000890DC91B170001602F402A423ED08A25A0
:1056800022006D00AC461032B14237D06546611839
:10569000495DD15449B2002930DB454601682E6886
:1056A000B1424ED00131CD17AD0D49198905890D93
:1056B000491B013301609F42E6DC88235B00E75011
:1056C0003B0001212000494200F04CF893230122C5
:1056D0001B01E254FCF7E0FA1C4B1D4A9C460023D8
:1056E000801859410B0080210200644409068B4256
:1056F00002D30122174B52420CC4E5E68823002254
:105700005B00E25032E7914200D060E7DCE6124AEB
:10571000A1580022984770E61048FFF735FAA323F6
:105720000022DB00E3181A600D4BE3181A6059E7FA
:10573000200000F0DDF803E67F2BC7DC22001032EA
:10574000BFE70133BB429FDBB7E7C0463809000023
:10575000A0860100FFFFFF7F24090000405B0210CC
:1057600014050000F0B557464E464546DE460C008F
:10577000E0B5904607009946C3B0386803681B69D6
:105780009847FB6800280CD1002B0DD10021380070
:10579000FFF7C2FD386803681B699847FB6800285B
:1057A000F2D0002BE9D1F1E7022BE6D0002C00DA91
:1057B00093E0032502200122803CE3B202A90B7092
:1057C0004C46E4B28C54E4184B46E4B25A1E002B0B
:1057D00021D0102A06D90B189B4643465D462B4321
:1057E0009B0728D045462D1AA84602AD6E1E454699
:1057F00081449446884603004A462900CD5C013323
:105800006419F554E4B29342F8D16246414601303E
:105810008018451CEDB27F23644223400B54386846
:105820002A0003689B69984743B0F0BCBB46B24668
:10583000A946A046F0BD4B469B089B009A460190A6
:105840000800294D51460023BA4600264746AC467B
:1058500090465A468346009464466546F85835405B
:1058600004406419214DD050704028404440043316
:1058700026009942F0D14246B84657468A4633043C
:10588000009C1B0EF318E3183402240E1B19360E6D
:105890009B19DCB253464646D31A9C4653460198A0
:1058A00056445946C318B346D145B0D035785E1C2E
:1058B0002C19CD546546E4B2002DA8D05D466D7814
:1058C000023364198D556546E4B2012D9FD05D46C3
:1058D000AD782C19CD54E4B299E7022501200022BD
:1058E000002302A96CE7C0467F7F7F7F8080808095
:1058F000F0B5C646A3222C4B00B5D200C4188218BE
:1059000023681168A2B0994244D08A26760009E043
:105910000133DA17920D9B189B059B0D9B1A236090
:10592000994237D0C218955D7F2DF1D9994231D077
:105930000133DE17B60D9B199A05920D921B7F2637
:1059400033002B40984622602E4223D08A235B00EE
:1059500000279C4602AE91421CD063468518ED5C40
:1059600035706DB2002D15DB0132D517AD0D521912
:105970009205920D521B013722600136B845EADCD0
:105980000121434602AA4942FFF7ECFE22B080BC47
:10599000B846F0BD6B46D91D002300680B70036844
:1059A00001229B699847F1E7140500008160704768
:1059B00010B583070AD00300032102E001330B4234
:1059C00005D01A78002AF9D1181A10BD03001968F9
:1059D0000C4A0D4C8A188A4322420FD15968094A51
:1059E00004338A188A43224208D15968054A04338D
:1059F0008A188A432242F1D000E001331A78002A43
:105A0000FBD1E1E7FFFEFEFE80808080F8B5C04656
:105A100001B40248844601BC604700BF5D0100201C
:105A200001B40248844601BC604700BF85010020E4
:105A300001B40248844601BC604700BF85010020D4
:105A400001B40248844601BC604700BFC100002089
:105A50004525730A000000000A2A2A2A2050414ED8
:105A60004943202A2A2A0A000A0000004E6F2073A8
:105A700070696E6C6F636B73206172652061766113
:105A8000696C61626C65000048617264776172657F
:105A900020616C61726D20256420616C72656164A7
:105AA0007920636C61696D6564000000486172640F
:105AB000206173736572740052656C656173650073
:105AC000626F6F74325F77323571303830000000AA
:105AD000322E312E310000007069636F000000002B
:105AE0006D61696E626F6172645F667700000000CD
:105AF000536570203234203230323600666E692BA6
:105B000000000000666E69006E616E00666E692DB1
:105B1000000000006C2073656E745F746F20256454
:105B20003A200000256420006520626164207375BE
:105B30006D2025643A2000006225630A0000000001
:105B4000624500006C2072657472792025640A0039
:105B5000FFFFFFFFFFFFFF7F06005250D3F07542AB
:105B6000B85A021006005250E182887FC05A0210D3
:105B700006005250ABB36053D05A02100600525088
:105B8000BBFF3CB6D85A021006005250861C0302D6
:105B9000E05A0210060052505422A29DF05A021000
:105BA00005005250DE65F4688C5F0210503D021013
:105BB000003D0210003D0210483D0210003D021061
:105BC000003D0210003D0210003D0210003D021099
:105BD000003D0210003D0210403D0210003D021049
:105BE000383D0210003D0210003D0210303D021011
:105BF00004400210663D0210FE3F0210663D021096
:105C0000E83F0210663D0210663D0210663D02103C
:105C1000663D0210663D0210663D0210663D0210B0
:105C2000583D0210663D0210663D0210663D0210AE
:105C3000663D0210663D0210583D02108C40021075
:105C4000BA3C0210BA3C0210BA3C0210BA3C021034
:105C5000BA3C0210BA3C0210BA3C0210BA3C021024
:105C6000BA3C0210BA3C0210BA3C0210BA3C021014
:105C7000BA3C0210BA3C0210BA3C0210BA3C021004
:105C8000BA3C0210BA3C0210BA3C0210BA3C0210F4
:105C9000BA3C0210BA3C0210BA3C0210BA3C0210E4
:105CA000BA3C0210BA3C0210BA3C0210BA3C0210D4
:105CB000BA3C0210BA3C0210BA3C02101840021062
:105CC0005840021018400210BA3C0210BA3C0210B0
:105CD000BA3C0210BA3C0210BA3C0210BA3C0210A4
:105CE000BA3C0210BA3C0210BA3C0210BA3C021094
:105CF000BA3C0210BA3C0210BA3C0210BA3C021084
:105D0000BA3C0210BA3C02102C420210BA3C0210FB
:105D1000BA3C0210BA3C0210BA3C0210BA3C021063
:105D2000BA3C0210BA3C0210BA3C0210BA3C021053
:105D30002C4202109E4002102C4202101840021009
:105D40005840021018400210000000000000F03F10
:105D50000000000000002440000000000000594046
:105D60000000000000408F40000000000088C34099
:105D700000000000006AF8400000000080842E410E
:105D800000000000D01263410000000084D797415A
:105D90000000000065CDCD410D0A000000000000AC
:105DA00000000000B94D0210D94C02109D500210A5
:105DB000DD4C02100000000000000000954E0210B3
:105DC000A14E0210B14E0210BD4E0210CD4E021077
:105DD000D94E0210314F02100000000000000000F8
:105DE00099500210D94C02109D500210DD4C021047
:105DF000585B0210645B0210705B02107C5B021047
:0C5E0000885B0210945B0210A05B021093
:105E0C00F0B5C646150000B504001E000268EFF39D
:105E1C00108172B61368002BFCD0BFF35F8F042384
:105E2C00E356002B2DDB2268BFF35F8F0020106040
:105E3C0081F31088D0221206127852B290469A4200
:105E4C0003D1002080BCB846F0BD00270BE02368CE
:105E5C00BFF35F8F1F6081F310882800310000F0C2
:105E6C0033F80028EDD12268EFF3108172B6136875
:105E7C00002BFCD0BFF35F8F23797F2BE7D94346F0
:105E8C0002E0D0231B061B6823712368BFF35F8FCE
:105E9C0000221A6081F310880120D3E70268EFF327
:105EAC00108172B61368002BFCD0BFF35F8FFF23F9
:105EBC0003710368BFF35F8F00221A6081F31088AF
:105ECC0040BF70477047C04601B40248844601BCCD
:105EDC00604700BF7D1B0210FA000000100000009C
:105EEC0000000000000000000000000000000000A6
:105EFC0000000000900B00200000000000000000DB
:105F0C00503300004C330000543300005233000077
:105F1C004D5300004D430000533400004334000047
:105F2C00A45D0210E05D0210000000000000000003
:105F3C000000000000000000312202105D2202105F
:105F4C00A9230210053102103D2A021075300210EF
:105F5C00D12202107922021099220210AD220210D5
:105F6C0009150210B5220210A1180210F921021015
:105F7C005D140210B1110210294E0210554E021080
:04000005100210E9EC
:00000001FF
