:020000041002E8
:1010000000200420F7100210C3100210C5100210B7
:10101000C1100210C1100210C1100210C110021044
:10102000C1100210C1100210C1100210C71002102E
:10103000C1100210C1100210C9100210CB10021012
:10104000CD100210CD100210CD100210CD100210E4
:10105000CD100210CD100210CD100210CD100210D4
:10106000CD100210CD100210CD100210CD100210C4
:10107000CD100210CD100210CD100210CD100210B4
:10108000CD100210CD100210CD100210CD100210A4
:10109000CD100210CD100210CD100210CD10021094
:1010A000CD100210CD100210CD100210CD10021084
:1010B000CD100210CD100210CD100210CD10021074
:1010C00000BE00BE00BE00BE00BE00BEEFF3058045
:1010D000103800BEF2EB8871386D0210586D0210A6
:1010E0003811021090A31AE71E481F49086006C86D
:1010F00081F3088810471D480068002801D019486E
:10110000F3E70DA40ECC002902D000F012F8F9E7A5
:101110001749184A002000E001C19142FCD116494C
:101120008847164988471649884700BEFDE701C928
:1011300001C29A42FBD37047586D0210C0000020D4
:1011400038110020D07D021000000420000004208F
:10115000D07D0210001004200010042000000000C8
:10116000704700000000000008ED00E0000000D023
:1011700038110020142F0020CD2902106D600210BC
:10118000C5290210F8B5C04606480749091A8B1050
:10119000C90FC91810B5491003D0044B002B00D05B
:1011A000984710BD381100203811002000000000C1
:1011B000054B10B5002B03D00449054800E000BFE3
:1011C000FFF7E2FF10BDC0460000000074240020BD
:1011D00018680210094A83009A1810B51468402252
:1011E000544080322240064CC000A44663441A603A
:1011F000044B9C466044416010BDC04604C00140A1
:1012000004D0014000400140074B8000C3181B6818
:10121000C90092000A435A400C231340034A9446E3
:10122000604403607047C04604C0014004D00140E0
:101230000123D0228340120693629361094A8300FE
:101240009A1811684022514080320A400649C00075
:101250008C4663441A60054B9C46052360444360FA
:101260007047C04604C0014004D001400040014026
:101270008023DB051868000F7047C0460FB400B527
:10128000084883B001F0F2FC049B002B07D005A9AD
:101290001800019101F07CFB034801F0E7FC0120FC
:1012A00001F08EFB1868021028680210EFF310801E
:1012B00072B6034A1368002BFCD0BFF35F8F7047F0
:1012C0002C0100D0BFF35F8F0022024B1A6080F325
:1012D000108870472C0100D070B5EFF3108C72B6F7
:1012E0000D4D2B68002BFCD0BFF35F8F0724CB087C
:1012F000C618C05C01230C40A3401C0004400342FC
:1013000007D118433070BFF35F8F2C608CF31088C7
:1013100070BD1000FFF7B2FF2C0100D0F8B54746B2
:10132000CE46884680B5EFF3108C72B6214D2C68FE
:10133000002CFCD0BFF35F8F9A422CD8D40807272B
:10134000055D061901241740BC402C421FD007211F
:101350000127894609E0D408055D06194C46390085
:101360001440A1400C00294211D001329342F2D224
:1013700001204042BFF35F8F00220E4B1A608CF3B6
:10138000108800280FDBC0BCB946B046F8BD254325
:1013900010003570EEE7BFF35F8F00232B608CF3F6
:1013A0001088012040424346002BECD00898FFF7FC
:1013B00065FFC0462C0100D0044A1078431CDBB204
:1013C000172B00D9102313707047C0460810002057
:1013D00010B5064B064C82B00100009318221F2363
:1013E0002000FFF79BFF02B010BDC0462C68021022
:1013F000941B00200021044B044ABFF35F8F02C3FB
:101400009342FAD17047C046000100D0800100D05D
:10141000054B064A1360064A136053609360D3601D
:1014200013615361936170478080808000E400E025
:1014300004E400E01F2318401E3B8340002905D030
:10144000C021044A4900535013607047802201496B
:101450008B50FAE700E100E001228240034B1B6859
:1014600013405A1E9341D8B27047C04600E100E0D5
:1014700001238340014A13607047C04600E200E048
:10148000064B10309B688000C358054A00209B1A09
:101490002F229A424041C0B27047C04600ED00E0A2
:1014A0000C10002070B50D00EFF3108672B60F4AD5
:1014B0001368002BFCD0BFF35F8F0D4B10309B687F
:1014C00084001B590B4A934203D09D4201D001F086
:1014D0001DF8074B9B681D51BFF35F8FBFF35F8FF4
:1014E0000022024B1A6086F3108870BD240100D0E0
:1014F00000ED00E0CD100210EFF3108172B60E4B3C
:101500001A68002AFCD0BFF35F8F0C4A1030926833
:1015100080008058BFF35F8F00221A6081F310882B
:10152000074B984206D02F23064A821A93429B41CA
:10153000184070470020FCE7240100D000ED00E0D7
:10154000CD1002100C100020F0B557464E46DE4676
:101550004546E0B585B0060000911700EFF3108B0B
:1015600072B66A4A1368002BFCD0BFF35F8F002568
:10157000674B5D579A46002D00DAA9E06B00654C79
:1015800001935B199B009846A146C1444B465246C5
:101590009B7910361370604BB6009B6899590B1BF2
:1015A0002F2B33D95D4B994200D0ACE0019B4246D2
:1015B0009C465B4B6544AD0063535A4B0232A21804
:1015C000043B9B1A1B05584A5B0D651913436B803E
:1015D000564B0121AB80FF23AB71009BEF71AB60D9
:1015E0004B460B4319004C4B9B689951BFF35F8FDF
:1015F000BFF35F8F0022454B1A608BF3108805B054
:10160000F0BCBB46B246A946A046F0BD01200A0088
:101610008243D3798C46BB4231D8454613004449B6
:101620001B1B5B415943090D3D4B63533D4B023539
:101630006519043B5B1B1B053B4D5B0D2B43AA4609
:101640004D466B800425AC465546E044131F444488
:101650001B1B1B055B0D1D434B46997100999D801B
:1016600099604946DF71334B01431360BBE7580073
:10167000C01880002018C179B9422FD90200062372
:10168000D356002BF3DA02932B4B61460393131DC1
:101690009A4604235B429C46E14450464B461B1A43
:1016A0001B055B0D9C46204B957198466346404652
:1016B00003439380019B5A199200039BA418A380B3
:1016C000029B1C4AA371009B2260E771A3608AE71A
:1016D00000F01CFF002553465D574FE790880293AA
:1016E0004005131D9A46031561469C464046D44466
:1016F000634604302018181AE0230005400D1B0231
:1017000018430390C5E700F001FF4FE7240100D024
:10171000022F00200C10002000ED00E0CD10021080
:1017200000A1FFFF3C10002000E0FFFF01BDFFFF14
:10173000AAAA00000148804701BD000070B501243D
:101740000443EFF30581EFF3108C72B6214A13685E
:10175000002BFCD0BFF35F8F1F4B05001F4AED1A13
:101760006D416A43120D1E4D8900AE6852B2765823
:10177000A6421CD00621595691421CD0122159561E
:10178000914222D01E215956914220D02A215956E9
:101790000324914210D0134B19781A708171BFF352
:1017A0005F8F00220B4B1A608CF3108870BDAB6802
:1017B0000D4C5C50EFE700246100091989005B18AB
:1017C000FF21997109499980E5E70124F4E7022492
:1017D000F2E7C046240100D00C100020AAAA0000A5
:1017E00000ED00E0022F0020CD10021001BDFFFF30
:1017F00010B5084B084C82B001000093002205236D
:101800002000FFF78BFD002801DB1F23181A02B010
:1018100010BDC04648680210112F002070B50400AA
:101820000E001500FFF7C8FD0100200000F006F8CB
:10183000A680E580BFF35F8F70BDC046024B9C461B
:1018400061448900016070474000003470B5114C5C
:10185000114DAC420FD2FF262368002B0CD0FFF7AE
:10186000ABFD01002000FFF7E9FFA680BFF35F8F0B
:101870000834AC42F0D370BDFFF79EFD010020009C
:10188000FFF7DCFF2671BFF35F8F0834AC42E3D370
:10189000F1E7C046E0100020F010002010B5040071
:1018A000FFF78AFD01002000FFF7C8FFFF23237127
:1018B000BFF35F8F10BDC04610B504000120FFF7D5
:1018C00087FD034BC3189B002360BFF35F8F10BDE0
:1018D00040000034034B9C46614489000160BFF323
:1018E0005F8F7047400000340A4B1968EFF3108097
:1018F00072B60A68002AFCD0BFF35F8F1B68BFF383
:101900005F8F00221A6080F3108840BF0020002102
:101910007047C046D0260020F0B5DE4657464E46FA
:101920004546E0B583B0EFF3058203231340B54A83
:10193000990052580091904601229A409346B24B2A
:101940001A60B24B01935B46B14843634346082299
:101950009B5E9946002B3ADA43469B881BB2002BCC
:1019600000DB9DE043469B79002B00D0E1E043463D
:1019700008241C5F002C20DB43465A6963001B19B6
:10198000DB00D3189D68DC686B1C00D103E1A04824
:10199000009984466144826A0B69AE1A9B1A9E4282
:1019A00013D35A46036A1A420FD0994800F094FBA9
:1019B0008C4202DCC7D18542C5D940BF03B0F0BC20
:1019C000BB46B246A946A046F0BD0D61EDE74246D2
:1019D00052695B0092464B44DB009A4453469E6832
:1019E000DF6800F079FB8F42B6DC00D1F8E0002F11
:1019F00000DAD9E05246534654691B69019A934272
:101A000000D1CCE0414652460820085E52880004CE
:101A100021001043984704000D0023002B4300D100
:101A2000C2E0002D00DBDFE030003900001BA941DF
:101A300053469860D96000229A5E002A00DA8BE74C
:101A400043465D6953009C18E4002C19A768E468BC
:101A50008C4200DD80E702D1874200D97CE7464610
:101A6000328108360DE08C4200D1C6E01E00002312
:101A7000F25E002A0ADB53009C18E4002C19A768C8
:101A8000E4689B18DB00EB188C42ECDD53461A80AF
:101A90004B46338043469B881BB2002B00DA61E73C
:101AA00043461A69EFF3108172B61368002BFCD01D
:101AB000BFF35F8F43469E88012342465B4293807B
:101AC00036B21369BFF35F8F00221A6081F310886A
:101AD000002E00DA46E743465D69083342469C46DD
:101AE0007700BF19FF00EF19BB68604698460823CE
:101AF000D15E9246FC68002907DA0EE0A24246D089
:101B000018000023C15E002906DB4B005B18DB00D8
:101B1000EB18DA68A242F1DD524606800023FE5E31
:101B20003980002EDCDA904643469B79002B00D1A9
:101B30001DE7002342469371434646460821595EFD
:101B400008364B1C00D138E747468946556902E004
:101B500006004B1C18D04B005B18DB00E8180A008D
:101B60008C46E95E43881BB2002BF1DA01235B420D
:101B7000DC178360C4604A4503D031803B89038011
:101B80003A81E1464B1CE6D1B8464C46F2E69A68EB
:101B90004245B5D9C0E7631C00D0F8E605E7200050
:101BA00023699847002825D1534642461B88138154
:101BB0001269EFF3108372B611680029FCD0BFF3ED
:101BC0005F8F4246514652880A80424649465180BC
:101BD0001269BFF35F8F0021116083F31088BBE6A9
:101BE000864200D803E7B7E6094800F075FA001905
:101BF00069411DE7656824680FE7874200D835E72B
:101C000044E7C046A02400203C700540191902108A
:101C10000040054070B52E4C2569002D04D00A21E6
:101C20002C48FFF70BFE70BD2B4E0321300000F057
:101C300049FAE660FFF7C0FB284B03229C46D023FD
:101C400022701B061B6801216370254B6044A36052
:101C50000F23800020610220638063694942A180D4
:101C600019800231198647311D83585218315A5252
:101C700075325C399952183201319952183201315A
:101C80009952183201319952083518329D52023159
:101C90001832995218320131995218320131995241
:101CA00018320131995218320131995218320131EA
:101CB00099520C4B0C49DC6001303562FFF7F2FBA6
:101CC00001210320FFF7B6FB084B1D60A7E7C046C4
:101CD00054100020D0260020004005404000003471
:101CE000FFFF1000A02400201919021038600540E1
:101CF0000048704754100020F8B51F0008AB1B784F
:101D000004001600002B08D100F0EEF932003B0071
:101D1000121A8B41002B00DA53E02269EFF3108096
:101D200072B61368002BFCD0BFF35F8F0223E15E15
:101D300063694A005218D2009B18002937DB1A88C1
:101D400062802269BFF35F8F0025156080F31088E1
:101D5000069A9E60DF601A61079A5A615A880132BA
:101D60005204520C101C002A1FD082B25880080462
:101D700010432669EFF3108772B63268002AFCD050
:101D8000BFF35F8FA2881A80A1802369BFF35F8FA2
:101D900000221A6087F310880B4923788C460132A1
:101DA0009A40E36863441A60F8BD0120DDE72369C7
:101DB000BFF35F8F00221A6080F310880120404239
:101DC000F2E70020F0E7C0463C20000070B50100BB
:101DD0000469EFF3108C72B620680028FCD0BFF3C2
:101DE0005F8F02200D5E4C6968004019C000241806
:101DF000002D37DB208848800869BFF35F8F0026FD
:101E000006608CF31088E3606388049801332061D6
:101E10005B0405985B0CA26060611A1C002B1FD04C
:101E200093B22804628018430A69EFF3108C72B6EB
:101E30001368002BFCD0BFF35F8F8B8823808D80CD
:101E40000B69BFF35F8F00221A608CF310880B7848
:101E500001329A40CB6808498C4663441A6070BDD1
:101E60000122DDE70B69BFF35F8F00221A608CF35C
:101E7000108801204042F2E73C20000010B5438961
:101E80000A1493421ADD53009B184269DB00D318F1
:101E90000469EFF3108C72B62268002AFCD0BFF3FD
:101EA0005F8F5A88090494B2090C8A4208D00369EA
:101EB000BFF35F8F00221A608CF31088002010BDE2
:101EC0008022120214435C80012302698371BFF3F4
:101ED0005F8F002111608CF31088044902788C46D2
:101EE0009340C268012062441360E8E73C20000090
:101EF00040787047F0B504000D0006267642F717CB
:101F0000C64636196F4100B582B08F4214D811D041
:101F100000F0EAF832003B00121A8B41002B17DC6C
:101F2000002B47D02000290000F0E8F802B080BC68
:101F3000B846F0BD8642EBD90022002316001F00F0
:101F400000F0D2F832003B00121A8B41002BE7DD83
:101F500000F0CAF832003B00121A8B41002B0ADB5A
:101F600000230193154B3200009315483B00FFF707
:101F70002DFF0028D6DB00239C46B046114A124EA6
:101F8000736A9F4204D8B16A8845CBD99F42C9D1B0
:101F90001168EFF3108072B60B68002BFCD0BFF312
:101FA0005F8F1368BFF35F8F6146196080F31088FD
:101FB00020BFE5E7002AB5D0CAE7C046E9180210FD
:101FC00054100020D026002000400540F0B5D64631
:101FD0004F464646C0B504000D0082B0EFF30587BA
:101FE0008946002F0ED0344900204B6AAB4203D300
:101FF0008A6A0130A24226D302B0E0BCBA46B1469A
:10200000A846F0BD2D4B9846DB689A46434650469D
:102010001E7800F061F80B00514602000436B6004D
:10202000715820008E1A2900801A99418F4211DCC4
:102030000ED020BF204A0020536A4B45DCD3926A61
:102040000130A242D8D25B1B5A1E9341D8B2D3E7CB
:102050008642EED900F048F822002B00121A8B417C
:10206000002B1ADB00230193154B220000934046FE
:102070002B00FFF7ABFE011E0FDD0F4B5A6A4A45DE
:1020800017D39B6AA34212D34046FFF7F7FE0A4AD2
:102090000020536A4B45AFD3D1E7074A0020536A6B
:1020A0004B45A9D3926A0120A242A5D2CBE74A456B
:1020B000EAD120BFE8E7C0460040054054100020A8
:1020C000E918021010B5024A0248FFF705F910BDE1
:1020D00064680210981B00200300416A0A00986A95
:1020E000596A8A42FAD17047034B596A0A00986AC2
:1020F000596A9142FAD1704700400540064A536A36
:102100009942FCD807D1044B02E05A6A914202D1AD
:102110009A6A8242F9D3704700400540F8B5DE461E
:102120004E4657464546E0B58B4605000A991800CD
:10213000160000F0CFFA0A9B6C001F02324B6419A4
:102140009C46A4006444636881469F4200D967604E
:102150002B1FDBB29846012B30D9C02380229B0174
:10216000E31812011A60294BAD0059599A4600290B
:102170001BD17301E026226853401E408023424653
:102180005B01E3181E60012A30D9802380229B0165
:10219000E31812011A6053464A4667605A51F0BC70
:1021A000BB46B246A946A046F8BD586900F092FA6F
:1021B000013043001B18033BFDD2DAE75B46012BDD
:1021C000CBD1C02303229B01E3181A60023AA36813
:1021D0001A42FCD07301E0262268AD0053401E4035
:1021E00080230A4A5B019246E3181E605A46216822
:1021F000514003220A401A6001225B469A40A368BC
:102200001A42FCD0C1E7C04600800040A41B002059
:10221000F0B546464F46D646C0B51F00344B440085
:102220009C462418A4006444636888461600FF2B6B
:1022300002D880235B006360031FDBB29A46012B48
:1022400030D9C02380229B01E31812011A60294B68
:1022500085005959994600291BD17301E02622684F
:1022600053401E40802352465B01E3181E60012A42
:1022700030D9802380229B01E31812011A60802349
:102280005B0063604B465F51E0BCBA46B146A8466E
:10229000F0BD586900F01EFA013043001B18033BE3
:1022A000FDD2DAE74346012BCBD1C02303229B01A9
:1022B000E3181A60023AA3681A42FCD07301E026C0
:1022C0002268850053401E4080230A4A5B019146E4
:1022D000E3181E6042462168514003220A401A60FA
:1022E000012342469340A2681342FCD0C1E7C04696
:1022F00000800040A41B0020014B8000C0587047A4
:10230000A41B0020F8B5040021481E0017000D0092
:1023100000F0E0F90100380000F0DCF9069B36041B
:102320001B031E432368002B20DB1A4B1A49E318BA
:102330005A1E93418022920194465B421B0B174A1E
:102340001B0363441360164A13601F000A68974317
:10235000FBD1144B2560E2182123A0601360236891
:10236000002BFCDA0823E6601360F8BD3F232268E7
:102370001340AB42D9D1A3681B051B0D8342D4D1B6
:10238000EE22E368D2021340B342CED1EDE7C0465D
:10239000001BB7000040FDBF08C0004000E0004047
:1023A00000F000400430000010B580241C4BE40510
:1023B0001C6000281AD001231A4C18431A4BDC6108
:1023C0001A4C44401C62596298628021144BC90522
:1023D0001960174817490860E021C9041960002AEC
:1023E00007D18022144B12061A6010BD0E4BD86123
:1023F000EBE753019B1A9B009A18802312015B04A0
:102400009A4209D213000D490B60074B5A60802293
:10241000094BD2051A60E8E7094B1A00F3E7C046FA
:1024200000B00540D3C007B0008005402D3FF84FF5
:10243000FCFF01000820014000A0054028240020E6
:10244000FFFFFF008023024A9B000B43D3627047CB
:1024500000800540142310B50100188804331B8840
:10246000984710BD162310B50100188802331B8849
:10247000984710BDF8B54746CE4680B50F1E19D017
:1024800014239946043304000025012698464B4640
:102490001888434621681B88984701C4431E984109
:1024A000013540420640AF42F1D13000C0BCB946D0
:1024B000B046F8BD0126F8E7142370B5040018886B
:1024C00004331B880D000549984703000020002CA9
:1024D00001DB0130A04029009847C046554200006A
:1024E000AA23064A1B0113608D235B00D3600449B5
:1024F000044B19605368002BFCDA7047004002401F
:1025000000B0FA00006002407047C04610B50148B4
:10251000FEF7B4FE8868021070B5074D074EB5424D
:1025200009D20024013E761BB60808CD9847230047
:102530000134B342F9D170BDF01000202C110020FD
:10254000054B064A06491A60064A074B1A601000F6
:102550000B689843FBD1704700E00040BFCDFBFE05
:1025600008C00040FE7F3C0000F00040044BDB6CE4
:10257000002B03D18022034BD2021A607047C04661
:10258000000011504C201150044A054B1A60054AB6
:102590001368DB018033FBD17047C046FFFFFF01AA
:1025A00000F0004008C000404022034B9A675A6781
:1025B0001A67DA667047C04600F0014010B5FEF7B2
:1025C00019FF10BD70B5044D044CA968C02220004D
:1025D00000F0D0F9AC6070BD00ED00E0000000201C
:1025E000002310B5294C82B0A367FFF779FF0122C1
:1025F000274B1A60636C012BFCD10322254B1A6018
:10260000224A936B012BFCD1013300930121224A12
:1026100022480433FFF776FE052301210093204A68
:102620002048FFF76FFE0022022104201E4BFFF717
:10263000EFFD0022012105201C4BFFF7E9FD0022E0
:10264000002107201A4BFFF7E3FD0022002108209C
:10265000174BFFF7DDFD8023DB00009300220021F4
:102660000920134BFFF75AFD0022104B00210620D2
:10267000FFF7CEFD0420FFF73FFE0E4900F02AF8D9
:1026800001000020FFF7DEFE02B010BD0080004018
:102690003CB0004030B00040002F6859008002403C
:1026A000008C864700C00240001BB70040597307EA
:1026B000006CDC0240420F0001480421014B184726
:1026C0007010002075240210014B9B681847000011
:1026D00070100020114A936F9B0813D21066516648
:1026E000002905D0FFE7FFE7FFE7516F106F704744
:1026F00004B5002801D00020C04304F045F80021B3
:1027000004BDC046F0B5146E556E576F166FFFF7D7
:10271000E5FF1466556657671667F0BD000000D0E8
:10272000132370B51D78012D19D014DD1F48FFF754
:1027300099FE06001E48FFF795FE1E4C80223100D0
:10274000200000F017F9022D2DD01B48FFF782FE64
:102750001A4B186070BD1A4B164CA364F5E7184B62
:10276000144C23606360A360E36023616361A36131
:10277000E36123626362A362E36223636363A3632F
:10278000E36323646364A364E36423656365A3650F
:10279000E36523666366A366E36623676367A367EF
:1027A000E367A364D1E7064BA364CEE7534400007C
:1027B00053460000E81200204C330000CC260020D5
:1027C000C527021007B5604601880A0A0230DF2AD1
:1027D000FAD1C9B2820804D30288408800041043A9
:1027E00000E00068014A5050039007BDE812002045
:1027F00051434343C9188C46110C83B24B4310B468
:10280000040C614392B280B2504362431C041B0C1F
:10281000001910BC59411304120CC01851416144F5
:10282000704700004840414048400E4B5B681847E5
:102830000C4B1B6818470C4A936F9B0802D2094B3C
:10284000DB681847F0B5146E556E576F166FFFF7BB
:10285000F6FF054A1466556657671667F0BD014BCB
:102860009B681847E8130020000000D0491A002890
:1028700008D1084670470000C10FC90700D5404283
:10288000002817D0F44603B40B4B1B68984706BCCE
:1028900081409E384042803107D20B0607D0490064
:1028A000490AC0051043084360470130F8E7490A68
:1028B0008902F5E770470000CC260020014B5B6AD7
:1028C00018470000E8130020132310B512481C78A5
:1028D000FFF7C8FD0100012C0AD003DD80220F485C
:1028E00000F048F80E48FFF7B5FD0E4B186010BD1C
:1028F0000A4C5422200000F03DF80B4B6365A365A1
:10290000E36523666366A366E36623676367A3677D
:10291000E3672362E361E5E753460000E813002024
:102920004C330000CC2600202D29021007B560464C
:1029300001880A0A0230DF2AFAD1C9B2820804D318
:10294000028840880004104300E00068014A5050AB
:10295000039007BDE813002001480421014B1847EC
:102960008010002075240210014B1B6818470000DE
:1029700080100020014B5B68184700008010002089
:1029800010B5002800D110BD00F024F9FBE7C046C7
:1029900010B5094A0300146884B0002C08D0012245
:1029A00000910648524203A9A047012004B010BD7F
:1029B00000F05CF90020F9E72424002081290210AE
:1029C00000BEFDE710B5FFF7FBFFC04670B5FFF78F
:1029D000A3FD074D074EB54209D20024013E761BE8
:1029E000B60808CD984723000134B342F9D170BD31
:1029F0002C11002038110020030010B50800110030
:102A00001B68984710BDC046F0B5C64600B5437D6B
:102A100007000D001600002B38D0002A2EDD002103
:102A20006A1E90466A5C037D4C1C00200A2A0CD06A
:102A3000A64216D043461B5D21000D3B5A4253412E
:102A40006A5CDBB24C1C0A2AF2D1002BF0D188421E
:102A500017DB022110483B689847A64207D02000A8
:102A6000E8E7864203DD311A3B6828189847AD191C
:102A7000013D2B780D3B5A4253413B7580BCB84613
:102A8000F0BD091A3B6828189847E2E7036811006F
:102A900028009847F2E7C0465C6A0210F0B5DE46AF
:102AA00057464E464546E0B585B017001C00060067
:102AB0000D00FFF719FB0023314A12184B4180210A
:102AC00009068B4202D301222E4B52422E490800A6
:102AD0008A4603F071FE01906B1C03D1300003F0B5
:102AE00003FE0500002C26D0284B9846284B1C6876
:102AF000002C15D0002F21D1264F02E02469002C94
:102B00000ED02368002BF9D03B68002B01D09C42EB
:102B1000F4D120002A003100C0472469002CF0D1F4
:102B2000019B002B28D1280005B0F0BCBB46B24663
:102B3000A946A046F0BD184B9846D7E7154B9946D5
:102B400002ABDF1D0A239B4602E02469002CE7D07C
:102B50002368002BF9D04B461B68002B01D0A34201
:102B6000F3D12A0031002000C0475B460122390022
:102B700020003B70C047E8E7504603F0FDFDD2E778
:102B800040420F00FFFFFF7FE8100020092A0210DB
:102B9000001C002008200020F92902100A4A1368AE
:102BA000002B05D10CE01A001B691032002B07D056
:102BB0009842F8D1002902D103691360016170477E
:102BC0000029FCD01060FAE7001C002010B500F0CE
:102BD0008DFA10BDF0B5CE46474680B583B06B4642
:102BE0000600DD1D2870FFF77FFA00231A4A12182D
:102BF0004B41802109068B4202D30122174B5242DE
:102C000017490800884603F0D7FD164B81461C681B
:102C1000002C14D0144F02E02469002C0FD023683C
:102C2000002BF9D03B68002B01D09C42F4D120004E
:102C300001222900FFF7E8FE2469002CEFD14B4662
:102C4000002B05D1300003B0C0BCB946B046F0BD82
:102C5000404603F091FDF5E740420F00FFFFFF7F84
:102C6000E8100020001C00200820002070B504009F
:102C700003F03AFD01230100050001222000FFF7C7
:102C80000DFF084B1C68002C06D06368002B05D094
:102C900098472469002CF8D1280070BD2469002CC5
:102CA000F3D1F9E7001C00207047C0460022014B19
:102CB0001A707047042F00204B790020FF2B0BD196
:102CC0008B79002B08D1CB79012B05D1082A03D9A8
:102CD000024B8A7809301A707047C046042F0020D2
:102CE0000120704710B5012901D0012010BD134902
:102CF0005379107909781B02034300209942F5D1DA
:102D00005378012B08D0022BF0D10020642200213F
:102D1000FFF74AFB0120E9E7D37891781B021943BA
:102D2000DB0507D54A0A100001231A407E331940FB
:102D3000FFF7C2FB01204A0A4042F5E7042F0020BA
:102D400000487047286B021070B505001400012080
:102D5000012909D153780020012B05D1637912791B
:102D60001B021343072B00D070BD21002800024A2C
:102D70009F3301F05FFAF7E7806A021001230370C6
:102D800000487047606A02104B780A781B021343B0
:102D90008A7810B512041A43CB781B061343962287
:102DA000D200934200D010BD002201201100404209
:102DB000FFF782FB024B1860024B19607047C04658
:102DC0008C1B0020901B002010B5024B1878FEF7DA
:102DD0004FFB10BD052F0020154B70B51A68002A57
:102DE00022D0EFF3108172B610680028FCD0BFF338
:102DF0005F8F00200F4A596010701B68BFF35F8F10
:102E0000186081F31088002400250B4E3078FEF7FF
:102E100023FB002804D1002400252900200070BDD8
:102E20003078FEF725FBF8E7FA240025A400ECE74C
:102E30008C240020092F0020052F002070B50400ED
:102E400000200E0001F016FB002836D0002001F013
:102E500027FB002831D0FFF747F90023184A121842
:102E60004B41802109068B4216D2164D280003F0F3
:102E7000A3FC002821D0002001F0FCFA00280FD18B
:102E800001200021404200F009FD03246442280093
:102E900003F072FC200070BD01220B4B5242E4E7AC
:102EA000002001F0FDFA0028EAD0210032000020C5
:102EB00001F000FB041EEAD1E7E703246442E9E7DE
:102EC00040420F00D8260020FFFFFF7F10B5FFF71C
:102ED0000BF900230E4A12184B41802109068B4240
:102EE00002D301220B4B52420B4C200003F064FC36
:102EF00000280CD001200021404200F0CFFC00202F
:102F000001F022FB0028F5D1200003F035FC10BDB4
:102F100040420F00FFFFFF7FD8260020F8B5DE46B5
:102F2000574680B505000C00FFF7DEF80023374A4E
:102F300012184B41802109068B4202D30122344BE7
:102F40005242344908008A4603F036FC002803D177
:102F5000C0BCBB46B246F8BD002001F08BFA002889
:102F60004AD00026002C43DD2B4B9B4614E0A919C8
:102F7000002001F023FB070001200021404200F067
:102F80008DFC002001F0E0FAFFF7AEF8224BF619B5
:102F900018605960B4422BDD002001F02FFBA71B05
:102FA0000200B84200DD3A00002AE0D101200021F1
:102FB000404200F073FC002001F0C6FA002001F04E
:102FC00059FA002814D0002001F018FB0028E1D1A4
:102FD000FFF78AF85B460F001A685B680021844699
:102FE0000E4812184B419F4202D8D3D19445D1D9F3
:102FF000504603F0C1FBABE700200021064B1860F0
:103000005960504603F0B8FBA2E7C04640420F00AB
:10301000FFFFFF7FD8260020B812002020A1070064
:1030200030B52B4C85B00021200003F0B5FB002803
:103030001CD1284B1A68002A16D0EFF3108172B603
:1030400010680028FCD0BFF35F8F0124224859602C
:1030500002781B68D2B20470BFF35F8F0020186043
:1030600081F31088002A17D005B030BD012000215F
:10307000404200F013FC002001F012FA050020008D
:1030800003F07AFB002DEFD0144B1B68002BEBD024
:10309000134A10689847E7E7FEF72AFE0400FFF797
:1030A00023F8FA220023920012184B4180210906CE
:1030B0008B4202D301220B4B52420121029100218B
:1030C0000191094920000091FEF716FECCE7C046A9
:1030D000D82600208C240020092F00208C1B0020E3
:1030E000901B0020FFFFFF7FD92D0210D02310B5C9
:1030F0001B0684B01C68FEF7FBFDFEF7F9FEA0423C
:1031000002D0002004B010BD2A4B002100201B7803
:1031100001F070FD28480368002B47D00120FEF71E
:1031200067FBFF23254C264920701840FEF7BAF9AB
:1031300020780121FEF77EF90520FEF7A1F900288D
:1031400026D1082200211F48FFF70EFCFEF7D0FD14
:103150000400FEF7C9FFFA220023920012184B4127
:10316000802109068B4202D30122174B52420121D2
:10317000029100210191154920000091FEF7BCFD4C
:103180000028BEDB12480121FFF708FD0120B9E746
:103190000120FEF71DF90B4B01001800FEF79AFB0A
:1031A000002205200B49FEF7CFF9EBE7FEF776FB8F
:1031B000B4E7C046546D0210D8260020052F002029
:1031C000213002108C240020FFFFFF7FD92D021038
:1031D00090100020C92D021000487047C46B0210E7
:1031E00000487047706B021010B504001748037850
:1031F000002B20D0002C06D1154B16484380063BEF
:10320000FF3B038010BD052C19D8134BA400E058D8
:1032100012490123013804E001330A800231142BE2
:103220000FD0C25C002AF7D1C022DBB25B00920053
:1032300008481343E5E7112100F01AF8DAE7002007
:10324000E0E7CA2303489B00DBE7C046EC2E0020E2
:1032500009040000D81B0020586B0210DA1B002064
:1032600010B5024800F0D8F810BDC046B0240020C8
:1032700030B54B1E012900D1A7E0664A11780D092F
:103280002C0030349F2900D9A2E00470012B00D11A
:10329000BEE00F21147821400C003034092900D9F8
:1032A00098E04470022B00D1B2E05478250929003F
:1032B00030319F2C00D990E08170032B00D1A7E022
:1032C0000F2121400C003034092900D987E0C47057
:1032D000042B00D19CE094782509290030319F2CE3
:1032E00000D97FE00171052B00D191E00F21214031
:1032F0000C003034092900D976E04471062B00D146
:1033000086E0D4782509290030319F2C00D96EE061
:103310008171072B00D17BE00F2121400C0030345C
:10332000092966D8C471082B00D171E014792509E8
:10333000290030319F2C5FD80172092B68D00F21F2
:1033400021400C003034092958D844720A2B5FD030
:1033500054792509290030319F2C52D881720B2BCA
:1033600056D00F2121400C00303409294BD8C472AB
:103370000C2B4DD094792509290030319F2C00D990
:10338000073101730D2B43D00F2121400C00303445
:10339000092901D937310C0044730E2B38D0D1796B
:1033A0000C09220030329F2900D9073282730F2B7B
:1033B0002ED00F220A4011003731092A01D83032AD
:1033C0001100C173102B23D010300023037030BDC7
:1033D00007345AE737310C0063E707316CE73731C0
:1033E0000C0074E707317DE737310C0085E70731C2
:1033F0008EE737310C0095E707319DE737310C0038
:10340000A3E70731AAE737310C00C4720C2BB1D106
:10341000C018DAE7B024002010B588B004000D22EF
:1034200000216846FFF7A0FA0D22002104A8FFF74B
:103430009BFA4B236A466846137004A90D2203F0D9
:1034400093F91521082220006944FFF793FA08B088
:1034500010BDC046F8B500F043F90C23194DFF220A
:10346000AB6705201849FEF76FF8184C4022002181
:103470002000FFF779FA4027002301262121144A72
:1034800066702783A260136063545F31618445399D
:103490006354104A10496360E2602787A1620B60A1
:1034A0006362E26203F098F980239B052E64EB646B
:1034B00090230A4A0120EA508022094B5202DA6422
:1034C000F8BDC04600001150450500201420002022
:1034D00084001050000110508000105010D00100E6
:1034E0000020115010B501210520FDF7A3FF10BDEC
:1034F00010B500220021024800F012F910BDC046AC
:1035000034200020044B1970002904D0802190231E
:10351000024A8902D1507047FE2E0020002011502F
:103520000B785B0602D14B78052B00D070478A7868
:10353000014B1A60FAE7C04600001150F0B5C646CC
:10354000C87800B58007830F1800012B60D08F78F2
:103550000A794B797F213940FC091B024E00134345
:10356000334D32195201AA189770012767405770DE
:1035700000275B055B0DD7701383D076B846CA0071
:10358000012C32D02B4FBC468F016244BC46AC4468
:103590006746BA6047461760002932D0264AC900FC
:1035A00090466246414451603F223F339343022894
:1035B00037D0224937190A687F01D3180B60204998
:1035C000EF19FA608B422ED836197601AD19EB7ED1
:1035D0001C499B064A4013438022120613436A6823
:1035E0001360012080BCB846F0BD174FBC468F0168
:1035F0006244BC46AC446746BA624746176000293D
:1036000008D1002364012C196360104BE360E8E7E4
:103610000020E7E70B4AC9009046624641445162E8
:10362000C2E75B00C5E7FEF771FFFA68CCE7C0466A
:10363000142000208400105004001050702400203A
:10364000FF0F10500000105080001050000110506B
:1036500010B503F0C1F810BD10B57F200C0020405C
:103660004000E409110000191A00034B4001C01882
:1036700000F056F8012010BD142000207F23180010
:1036800010B50840CA090B4203D107497D3B9B1A7C
:103690008B66400080188022044B40010021C01836
:1036A000120103F0A1F810BD0020115014200020D9
:1036B0007F22130010B50B400A4200D110BDC9098A
:1036C0005B005B1804485B01C0180023002203491B
:1036D000C37003F089F8F1E714200020FFF7FFFF23
:1036E00080220A4B520410B51A60094B09491A602E
:1036F00010000B689843FBD180220021520106483C
:10370000FFF732F90922054B5A6710BD00E000406F
:1037100000F0004008C000400000105000001150B0
:10372000002310B5C38201338282837601610400D5
:1037300003F062F8002804D080219023074A890210
:10374000D150200003F008F8002802D0012323778D
:1037500010BD200003F038F8FAE7C04600201150F1
:103760007047C0467047C046002070470020704731
:103770007047C0467047C0467047C0467047C04655
:10378000024B5878431E9841C0B270479C160020E7
:10379000024B18784007C00F7047C0469C160020A7
:1037A000F0B5D6464F464646C0B5314B07009A465F
:1037B0001B780E00FF2B01D0012044E0002941D0EE
:1037C000002154222B48FFF7CFF800222A4C2B4B24
:1037D00020001A70FEF762F8294B1C60294C20006B
:1037E000143CFEF769F8200001F00CFE264B274D33
:1037F0001C60274B002B2BD02800FFF7BFFA254B6E
:103800002A781860244900248946224900238846E2
:1038100010E043461B6862019B18002B12D05B68C6
:10382000002B0FD098472A780134E4B2511C2300B2
:10383000A1420FDBA242ECD89B1A5B014B445B68B0
:10384000002BEFD10020E0BCBA46B146A846F0BD3F
:103850002A78D7E75346310038001F70FFF7FAFD8A
:103860000028EFD03800FFF73DFE0120EBE7C0460F
:10387000C41000209C16002094160020FF2E00206B
:10388000F0160020BC100020F4160020FD2E0020B1
:103890007D2D0210EC140020806C0210F0B5DE4685
:1038A00057464E464546E0B5C84B91B002931B784B
:1038B000FF2B00D13EE1C64BC64E9B465F46C64B32
:1038C0000DAC0193C54B009335686A69EFF3108125
:1038D00072B61368002BFCD0BFF35F8FA96128007C
:1038E000210001F0BDFB6A69AB69BFF35F8F002166
:1038F000116083F31088002800D11BE16378082B46
:10390000E2D89B00FB589F466368002BDCD0A06880
:103910009847D9E77F222179AF4D0A405300EB1831
:103920009846C809804440460123303005799D43BC
:103930000571057903339D430571002A00D100E12B
:103940004346A74A1B7D1278934200D3EFE0A54A75
:103950005B011568ED18002D00D1EBE0A3686279DA
:103960002078AD69A847AFE79F4A1378002B00D1B4
:10397000E0E01378013BDBB213701378002BA3D186
:103980000122954D01212B78042013432B70342301
:10399000EA5C8A43EA54EA5C8243EA540133EA5C13
:1039A0008A43EA54EA5C8243EA54237800209B4627
:1039B00000F0A0FC602223791A40602A00D1EFE0D9
:1039C000402A00D1F5E0DB06DB0E012B00D113E12C
:1039D000022B00D1C7E0002B00D0E1E0202A00D16B
:1039E0001CE2002A00D0DBE06379092B00D9D7E084
:1039F0007E4A9B00D3589F46774D2B78DB0700D437
:103A000062E7FFF7BBFE5FE7019BDB78DB0700D4D3
:103A10005AE76068FFF7A6FE56E76F4D2B78DB0785
:103A200000D451E728780007C00FFFF7A5FE4BE749
:103A300023786A4999468B46694B6A4998468A4673
:103A400039001A7847460023B04600254E4689467D
:103A500010E053461B686A019B18002B00D176E0EA
:103A6000DB68300098473A780135EDB2511C2B00E5
:103A70008D4244DC9542ECD39B1A5B015B44EFE73B
:103A8000237858499946564B8A4698463100BB469A
:103A90004E461A7800250023474689460FE05346D4
:103AA0001B686A019B18002B55D0DB6830009847D3
:103AB0003A780135EDB2511C2B008D4207DC95425E
:103AC000EDD39B1A009A5B0194466344EDE7019D98
:103AD000542200212800FEF747FF1022FF2144480E
:103AE000FEF742FF28002022FF2114304E465F4699
:103AF000FEF73AFF00F0F4FBFFF73CFEE4E6364D3C
:103B0000542200212800FEF72FFF1022FF21281D3C
:103B1000FEF72AFF28002022FF21143046464F4698
:103B2000FEF722FF00F0DCFB2379AB70CCE6501CE3
:103B3000984213DA11B0F0BCBB46B246A946A04683
:103B4000F0BDA3686279207800F0E8FBBCE6464649
:103B50004F46214DE6E74E465F46CBE71F4D9B1A89
:103B60005B015D19FAE67023217A0B4218D1C8096E
:103B700082460F330B405B0098461948EB185344BC
:103B80001B7D00789946834266D216485B01006827
:103B900081469944002A00D15FE14B46002B68D151
:103BA00020780021FFF76AFD80212078FFF766FD6D
:103BB0008AE6104800F09EFB012158460EAAFFF746
:103BC000C3F8002800D07FE6EAE7C046C410002012
:103BD000D86B0210F41600209C160020806C021096
:103BE000FD2E0020EC140020FF2E0020FC6B0210A4
:103BF000A0160020492D0210237A0F2BD0D8CF4ACF
:103C0000EB181B791578AB423ED3691C9942C7DB90
:103C10005D1BCB4B6D01ED18686900F06BFB01215A
:103C200058466B690EAA9847002800D04CE66022DF
:103C3000150023791D401A42B2D163790A3B012B4A
:103C4000AED800F057FB63790A2B00D199E15846B2
:103C50000EA900F0D9FA37E6431C4B4500DAF7E02D
:103C60004B461B1A5B019946B5488144002A00D196
:103C7000F3E04B46586900F03DFB4B4601215846A6
:103C80005B690EAA98479CE7AE4A5B011568ED1880
:103C9000002DC1D184E7A37999466B789945D6D098
:103CA0006B78002B00D033E14B466B70002B00D1BA
:103CB0002BE148460138C0B2FFF792FA002800D144
:103CC0007EE143780793022B00D079E10122C1798C
:103CD000B1468B11491113400A40302112015B019A
:103CE00013432A78A8468A4313432B7009239A4624
:103CF00082445646BA46C37882781B021343C318DF
:103D000005938E4B04938E4B08938E4B09938E4BE9
:103D10000A93059BB34200D855E1737801220B2B1F
:103D200003D13378F278F6187378042B00D044E18D
:103D3000059B00279B1B9BB20693049B0B921D784F
:103D4000002303931BE0099A7B011568ED18002DF1
:103D500000D132E1310058462B69069A98478446D3
:103D6000082803D9069A824200D313E1049B013745
:103D70001D78FFB26B1C03979F4200DD1DE1BD4221
:103D8000E1D8039B5D1B089B6D019C466544E1E700
:103D90006B780CAA02321370584601230EA900F06A
:103DA00049FA91E5E3881A0AD8B20F2A00D9F7E652
:103DB00066499300CB589F460EA800F0A1FA5846DA
:103DC000A179FFF795FB02222B7813432B707BE53B
:103DD000E388012B00D0E3E608222B785846934372
:103DE0000EA92B7000F010FA6EE5022029780CABBA
:103DF0009A1C8B068908DB0F01400B431380584641
:103E000002230EA900F016FA5EE5E388012B00D02C
:103E1000C6E608222B7813432B7018E7237A0F2B62
:103E200000D9BDE6EB181D79444B1B789D4228D282
:103E3000444B6D011B685D19002D00D1B0E6686927
:103E400000F058FA012158466B690EAA9847B8E667
:103E5000002A00D0A4E600239946627902201300CC
:103E600003928343012B15D0002A00D098E62B0043
:103E70004344534430331B790CAA9B07DB0F0232B7
:103E8000BCE75A1CAA4200DA8AE6ED1A2C4B6D01F7
:103E9000ED18D4E7E388002B12D1029B1878039B1E
:103EA000012B23D0FFF7EAFB43460221EB185344D2
:103EB00030331A790A4301211A711A790A431A71A7
:103EC0004B46002B00D1FFE4586900F013FA4B4633
:103ED00001215B690EAA58469847002000F00AFAB3
:103EE0003523EB5CDB0700D5EEE4B0E6FFF7E0FB43
:103EF00043460221EB18534430331A798A431A712E
:103F00001A7903998A431A71DAE7FFF733FC9EE6C0
:103F100000215846FFF7F6FA5846FFF799FBAB78B1
:103F2000074903930491054B064998461A78059171
:103F3000002329001D008A461BE0C046FD2E0020FC
:103F4000806C0210EC140020B0160020246C0210CB
:103F5000059B6A011B689B18002B4DD0DB685846F7
:103F6000984743461A780135EDB2511C2B008D421B
:103F70002EDC9542ECD39B1A049A5B019446634471
:103F8000ECE70CAB9A1C584601230EA9157000F003
:103F900051F999E40B9A012A4FD0002A3CD0002312
:103FA000B07804E00133DBB20F71934234D2C11810
:103FB000C9B241440D79FF2DF4D04E4645465746CF
:103FC00000236B70ECE54E465746FFF7D1FB3EE60B
:103FD0005546542200212800FEF7C6FC1022FF217E
:103FE000281DFEF7C1FC28002022FF211430FEF717
:103FF000BBFC039BAB7057E65546FAE7FEF7A0FE05
:10400000021E00D1CCE5D37891781B020B435846B1
:104010000EA900F00FF9D4E565463B002A003100F7
:104020000A9800F08DFEAC46049B039A1B78664408
:104030000133934200DB6CE6BFE7174B29699942D5
:10404000ADD1079AABE7FFF78FFB021E00D1A7E5C2
:10405000584613780EA900F0EDF8B2E52189FFF774
:10406000C3F8021EF4D19BE5022A0FD0FFF77EFBB6
:10407000021EC8D194E5FFF7AFF8021E00D18FE50C
:10408000122358460EA900F0D5F89AE5FFF7A8F8D4
:10409000021EB8D184E5C04601470210F8B5574664
:1040A0004E46DE4645460C00E0B516001F00002ACD
:1040B0003CD01F4B00259A46702399461D4B9B46CA
:1040C00017E05B462000997800F0FCFD00281FD027
:1040D00021004046FFF732FA002819D0A378DA0908
:1040E000012A1CD00A9A013513702378E418B542CE
:1040F0001CDA6378052B0BD1E3789B079B0FBB423F
:1041000006D153464A461B789846A3781A42D8D01F
:104110000020F0BCBB46B246A946A046F8BD0B9AAB
:10412000013513702378E418B542E2DB0120F0E793
:10413000C41000209C160020702270B5094B0C00A2
:104140001D788B781A4201D0002070BD064B2000EC
:10415000997800F0B7FD0028F6D021002800FFF77D
:10416000EDF9F2E7C41000209C1600200B007F2020
:1041700010B51840DB0934334000044AC018044B22
:104180001168C01800F05AFD10BDC046F01600209E
:104190009C1600200B007F2010B51840DB0934333B
:1041A0004000044AC018044B1168C01800F06EFDAE
:1041B00010BDC046F01600209C16002070B57F246C
:1041C0000F480C4064000419CD096419303420797B
:1041D000C00701D5002070BD012625790948354367
:1041E00000782571FFF738FA0028F4D101222379ED
:1041F000934323712379033293432371EAE7C04643
:104200009C160020C410002070B5094C060008223E
:1042100020000D00FEF7AEFB00238021E360A360C9
:104220002B783000994300220023FFF7C7FF70BDB1
:104230007C160020F8B5CE4647469046264E80B5FF
:104240008146082230000D001F00FEF793FB434615
:10425000B3600023F381EC79AB7924021C43231C67
:10426000BC4200D93B1C9FB2B381002C0ED0002F62
:1042700018D04346002B2CD03B1C402F1BD89FB29C
:1042800033787F2B1CD80021144A0FE080212B7833
:104290000022994348460023FFF790FFC0BCB9466F
:1042A000B046F8BD7F230022317899433B00484651
:1042B000FFF784FFF2E740239FB233787F2BE2D9E8
:1042C000064C3A0041462000FEF754FB80212200B4
:1042D000ECE70020E2E7C0467C1600203C160020F8
:1042E00010B5142200210248FEF73EFB10BDC04667
:1042F0007C160020014B18617047C0467C160020D8
:1043000010B5054C010008222000FEF733FB002306
:10431000A360E36010BDC0467C16002070B5384C29
:104320001D0023780600DA09C9098A4210D000204E
:10433000002D00D070BD21003000FFF7F1F8236997
:10434000002B03D022000321300098470120F1E721
:10435000A0687F2B05D8002834D02A002949FEF711
:1043600009FBE289A1685219E38892B24919E281F6
:10437000A160934214D03F2D12D9A389981A051C2D
:1043800080B240282AD82078ADB27F2828D80021D2
:104390009A4232D01B4A2B003000FFF70FFFC9E7CB
:1043A0002369002B05D02200022130009847002805
:1043B0000AD0802123780022994330000023FFF7A0
:1043C000FDFEB7E70020B5E700213000FFF756F902
:1043D00030008021FFF752F90120ABE74025D2E7FA
:1043E0009A4207D0074C2A002000FEF7C3FA80212A
:1043F0002200D0E780210022CDE70022CBE7C04693
:104400007C1600203C16002070B50500FFF7B8F9B7
:10441000002800D170BDFFF7BBF90028FAD1C823EE
:104420006B43124CE618F1780029F3D010331C19B5
:10443000200000F0FFFD3F28ECD90020F178FFF7C5
:1044400095FE0028E6D0200000F0F4FD3F2808D9B2
:10445000074BEA01D218F17840230020FFF7AEFEA7
:10446000D8E7F1780020FFF795FED3E77415002018
:10447000F014002010B50400FFF782F9002801D1E4
:10448000002010BDFFF784F90028F9D1C82262434B
:10449000024B01309B181B791840F2E7741500207D
:1044A000C82310B543430248181800F0A5FD10BDFD
:1044B00084150020F0B5C824C646802344431F4F0E
:1044C0001034050000B53C195B029A4200D31C4A27
:1044D000200092B200F012FE8046FFF751F900284A
:1044E00003D1404680BCB846F0BDFFF751F9002823
:1044F000F7D1C8266E43BE19F378002BF1D0200007
:1045000000F098FD3F28ECD90020F178FFF72EFE4F
:104510000028E6D0200000F08DFD3F2808D9094B87
:10452000EA01D218F17840230020FFF747FED8E7D0
:10453000F1780020FFF72EFED3E7C0467415002067
:10454000FFFF0000F0140020F8B50600FFF718F98F
:10455000002801D10020F8BDFFF71AF90028F9D191
:10456000C82474432500134F2435ED19280000F0AA
:1045700043FD0028EED03F190020B978FFF7F6FD83
:104580000028E7D00C4BF401E41821002800402259
:1045900000F0B4FDB978051E08D003002200002009
:1045A000FFF70CFE0028D5D02800D4E70020FFF745
:1045B000F1FDCFE7741500203015002070B5C82438
:1045C00044430C4B0500E41880235B029A4200D35D
:1045D000094A200092B200F059FE0600200000F0C7
:1045E0000BFD3F2801D8300070BD2800FFF7ACFF5D
:1045F000F9E7C04698150020FFFF0000C82310B55A
:1046000043430248181800F015FD10BD981500200E
:10461000F0B50025184C83B0C82200212000FEF719
:10462000A3F9164B21001D70FF236371E1235B0288
:10463000A360200008234022A37338310095073B74
:10464000103000F0A3FC27000123210020002600E9
:10465000402278310093B837243000F097FCC03600
:104660003800FDF71BF93000FDF718F9E561276206
:104670002663656303B0F0BD74150020701500203B
:104680000B4B196B00290AD01A6A002A0DD00022A0
:104690001A621A63DA6100225A63012070471A6AAB
:1046A000002AFAD0D9611962F7E71A63F3E7C04626
:1046B0007415002070B50F4C052200212000FEF774
:1046C00053F90D4D2B78DA0707D50C4C9B070CD509
:1046D0000121200000F0B6FE70BD2000103000F077
:1046E00091FE2B78054C9B07F2D4200000F08AFE47
:1046F000EEE7C046741500207015002098150020C4
:10470000F0B54B79060083B0022B02D18B79022BD6
:1047100003D00025280003B0F0BD214FBB78002B4B
:10472000F7D18B7809253B700C780C196378242B12
:104730000BD1082A02D80FE0AA420DD32378E4183F
:104740005D196378ADB2242BF6D0052B08D0042B6D
:1047500002D163790A2B11D00020FFF755FED9E76B
:1047600021003000FFF7E8FC0028D2D0A3787B704E
:1047700023785D19E4186378ADB2E8E7094B277830
:10478000019301330093022202233000E119FFF765
:1047900085FC0028BDD00E35ED19ADB2DCE7C04672
:1047A0007415002076150020F8B5602314001278E7
:1047B000050013400020202B07D1304A6379277968
:1047C00016781B023B439E4200D0F8BD6378222B33
:1047D0001AD007D8202B34D0212BF6D101293ED076
:1047E0000120F2E7232BF0D1012940D00329F7D192
:1047F000234B002BF4D0E178A37809020020194361
:1048000000E000BF0120E0E7012930D00329E7D113
:1048100001252E00A378E478023924021C43147188
:10482000264024321000714000F00CFE154B002B86
:10483000D6D06208002031002A4000E000BF0120ED
:10484000C3E701290BD00329CAD10F4B002BC7D0D6
:10485000083200201100FEF797FA0120B5E7072380
:1048600021002800094AFFF7E5FC0120ADE72100FF
:104870002800FFF7C9FC0120A7E7C04674150020F7
:104880000000000000000000892D02107C150020AF
:10489000F0B54F464646D646364DC0B5EA781F00BD
:1048A00080460C00AB788A423BD08B4210D000206F
:1048B000E0BCBA46B146A846F0BD2F4B002B04D051
:1048C0002E4800F0AFFB002851D00020FFF79CFDE0
:1048D000AB78A34201D00120EAE7294B002B02D09C
:1048E000002000E000BF0020FFF72EFE0028F2D1DC
:1048F000244C200000F080FB0028ECD1002FEAD0EF
:10490000BF06E8D1243C4046A178FFF72FFC0028E1
:10491000E1D0002300224046A178FFF74FFC0120A0
:10492000C6E710239A46184EAA4431005046BAB240
:1049300000F0ACFC154B002BBFD06B79FF2BBCD02B
:10494000002FBAD0F219914603E00136B145B4D038
:104950006B7932789A42F8D1504600F063FB002818
:10496000F3D15346103B597900E000BFEDE700E07A
:1049700000BFAAE774150020000000008415002085
:104980000000000098150020F01400200000000036
:104990009322F0B5134C85B0002120009200FDF762
:1049A000E3FF23002000802640270F4D4D33760083
:1049B000FF33293002950093002200230021039742
:1049C0000196FF3000F0D6F94035201D2834002331
:1049D00001220021039702950196009400F0CAF984
:1049E00005B0F0BD40180020C017002010B5054CE0
:1049F000200000F0F5F920002538FF3800F0F0F92C
:104A0000012010BD6819002070B5084C0025200059
:104A10003130FF30257000F0F5FC20000C3000F044
:104A2000F1FC2A23FF33E554657170BD4018002066
:104A3000F8B557464546DE464E46E0B54B798046CA
:104A40000F00FF2B27D1424B0C7899462A23494669
:104A5000FF33CB5C002B1ED14E79002E1BD1BB78CF
:104A60003C190B703B79002B12D098235B004B4410
:104A70009A460C234B449B46A5186378052B05D119
:104A800010E02378E4186378052B0BD0A542F8D802
:104A9000E01B80B200E00020F0BCBB46B246A94655
:104AA000A046F8BDA542F3D921004046FFF744FBDC
:104AB0000028F0D0A3780136F6B2DB09012B29D00B
:104AC000504600F09FFC2A234946A278FF33CA547F
:104AD000637922791B0213431E4A5B0594465B0DE2
:104AE000942163445A4253414A4602204900525C91
:104AF0005B00824313434A465354514640460839AB
:104B000000F0D6F90028C6D02378E4183B79B342E8
:104B1000B3D8BDE7584600F075FC5A46A3780C3A66
:104B20005371637921791B020B430A495B058C465B
:104B30005B0D634459424B41022011795B00814374
:104B40000B43594600200839137100F07FF9DBE769
:104B50004018002000FEFFFF70B505002A201F4C02
:104B6000FF30205C1E006379884203D000208B4216
:104B70001DD070BD9A235B00E35A002B0DD1184B5A
:104B8000002B04D000201749B2B200E000BF28007B
:104B9000154900F08DF90120EBE720009623313014
:104BA0005B00E158B2B2FF3000F070FBE7E70F4B5B
:104BB000002B04D031040020090C00E000BF0C4C95
:104BC0002800210000F042F90028E4D13200210041
:104BD000280000F007F90120CBE7C046401800206C
:104BE00000000000C017002068190020000000002D
:104BF0004418002000B5030083B0002910D0002025
:104C0000012B07D80A78002A04D00B48C25401208F
:104C1000012A01D003B000BD1800FEF7C1FDF9E77D
:104C2000012301A900200B80FEF7BAFD0028F1D076
:104C30000122014B1A70EDE790160020037870B541
:104C4000DB0704000E00DD0F002B17D103785B0794
:104C500001D5280070BD01213000494201F0A4FDBA
:104C60002378DB07DD0F002B0AD123785B0708D4FC
:104C70000422237801251343237002E00025E8E78E
:104C80000025300001F078FDE3E7C04670B50C0068
:104C9000012106004942200001F086FD33785B07C0
:104CA000DD0F002B04DB200001F066FD280070BD45
:104CB0003378DB0704D40422337893433370F2E76C
:104CC0000025F0E7437902791B021343C2785B05A4
:104CD00092075B0D920F022A1DD0032A0CD00020F0
:104CE000012A08D102394A425141124A944661448C
:104CF00099424041C0B2704702394A1E91410E4A62
:104D0000494211408022D2009446002061449942D9
:104D10004041C0B2EFE7022905D0002040229A426C
:104D20004041C0B2E7E7054A981843425841C0B233
:104D3000E1E7C046FF03000040FCFFFF00FEFFFF6D
:104D40008A1870B5914207D27F264C78052C04D082
:104D50000C7809198A42F8D870BD34008D782C403F
:104D600064000419ED0963550C7809198A42ECD8DE
:104D7000F2E7C046F0B5C64600B582B0150008AAF5
:104D800040CA040017880BAA1288012090460A0026
:104D90002178024081432000114321703A000093A2
:104DA00031000123083000F0F1F8002E01D0002F6F
:104DB00008D10A9B012063604346638002B080BC37
:104DC000B846F0BD26001C363000FCF767FD002316
:104DD000002D01D0330000266361A661E9E7C046DB
:104DE00001207047F8B502240B7807001C4063428D
:104DF0005C41144B64421C40134B08009C46083035
:104E00000D001600644400F0F7F8002807D1002ECA
:104E100005D0344203D101242B781C4201D000205C
:104E2000F8BD38006978FFF7A1F90028F7D02B7892
:104E30001C42F4D10023002238006978FFF7BEF944
:104E4000EEE7C04640FEFFFFFF010000F8B50D0091
:104E50000835060028000C0000F0CEF8002803D02A
:104E6000012723781F4201D00020F8BD300061786F
:104E7000FFF77CF90028F7D028006288616800F00D
:104E80003DF92378051E0BD01F42EDD10300626867
:104E900030006178FFF792F90028E5D02800E4E7B8
:104EA0001F42E1D130006178FFF774F9DCE7C046BA
:104EB000F8B5CE46474680B58A8905000C000B78C8
:104EC000002A07D101261E423FD00020C0BCB946AF
:104ED000B046F8BD9B0734D5FE2380261B029946B9
:104EE000B60027000837380000F0A4F88642ECD856
:104EF0000122237890461A42E7D128006178FFF713
:104F000035F90028E1D0380000F094F8864231D815
:104F10004146237862881942D7D14B461840061C77
:104F2000904200D9161CB6B200226178002E00D043
:104F3000626833002800FFF741F90028C5D030002F
:104F4000C4E7114B40269946CBE74978FFF70EF9A5
:104F50000028BAD0227863881642B6D10022617840
:104F6000002B00D062682800FFF728F90028ACD099
:104F70006088ABE7424623781A42A6D128006178C0
:104F8000FFF708F9A1E7C046C0FF0000F0B5C6462C
:104F900000B5040006A805788020884617001E008A
:104FA0000002824226D8E068002803D0012149424D
:104FB00001F0FAFB2069002803D00121494201F0E9
:104FC000F3FB4346236073045B0CED031D43002396
:104FD000E0686381A780E5802381002801D001F08B
:104FE000CBFB2069002801D001F0C6FB012080BC6A
:104FF000B846F0BD0020FAE710B5048941898288DF
:10500000A3B288B28C4207D31B1A9BB2101C9A42DF
:1050100000D9181C80B210BD5100091A5B189BB250
:10502000F4E7C04603894089181A43425841C0B288
:105030007047C04610B5048941898288A3B288B2FE
:105040008C4207D31B1A9BB200209A4201D9D21A74
:1050500090B210BD5100091A5B189BB2F4E7C0462C
:1050600070B5040000690E00002803D001214942F8
:1050700001F09AFB25896089A288A9B283B2854292
:105080002CD3CD1AADB2002D2ED0AA4208D2914217
:1050900030D3891A8BB263819A4203D89B1A9BB290
:1050A0009A42FBD9E28821685204520C53433000E3
:1050B000C918FDF75FFC63890125591C89B2A288D4
:1050C0008B4213D900215200891A89B2206961816B
:1050D000002801D001F050FB280070BD5500ED1AEA
:1050E0004D19ADB2002DD0D1618989B252009142E3
:1050F000ECDBE9E789188BB26381CDE7F0B5464672
:105100004F46D646C0B5060000698946904600283D
:1051100003D00121494201F047FB31897289B588EA
:105120008BB294B2914254D31F1BBFB2002F4AD00E
:10513000BD4205D2AB4251D25B199CB22F007481A3
:105140004346B8453DD89FB2A54203D8641BA4B2DC
:10515000A542FBD9F28831685204520C9046624352
:105160002B1B9BB2891842469F4225D953439BB2C1
:105170001A0048469A46FDF7FDFB434648467D1B0C
:1051800064195C4331685044A2B2FDF7F3FB7189A6
:10519000B588CB199BB26A00994216D99B1A9BB26B
:1051A00030697381002801D001F0E6FA3800E0BCD4
:1051B000BA46B146A846F0BD48467A43FDF7DAFB49
:1051C000E5E73B1CBFE773899BB26A009342E7DBCC
:1051D000E4E76F003F1BDF19BFB2A7E75B1B9CB280
:1051E000ACE7C046F8B50400C0680E00002803D044
:1051F0000121494201F0D8FA258920896189A288D4
:10520000ADB283B28FB2884229D3DB1B9BB29A42E4
:1052100009D8E779FF0906D1E068002801D001F03C
:10522000ABFA3800F8BD95421ED32B009B1A9BB2F7
:105230009342FBD2E28820685204520C534331005F
:10524000C018FDF797FB6B1C9BB2A2889D4218D932
:10525000002352009B1A9BB201272381DCE75100F7
:10526000C91B5B189BB2D2E72B00E288206852046E
:10527000520C53433100C018FDF77CFB0135A28866
:10528000ABB252009342E7DBE4E7C046F0B55746C5
:105290004546DE464E46E0B5140005000F0083B0DB
:1052A000002A75D0C068002803D00121494201F0CE
:1052B0007BFA2E89E9796A89AB88B6B292B2C909BC
:1052C00045D1964200D36DE059008A1AB21892B2C5
:1052D000002189469A4234D29A1A111C92B2A242F3
:1052E00000D9211C8AB29146EA885204520C904699
:1052F0004A46B21892B292464A46D21A92B293469F
:1053000034009E4203D3E41AA4B29C42FBD242462C
:10531000624328681B1B9BB2801842464B4554D3FE
:105320004B4639005A43FDF725FBAB885B005645D9
:1053300001D89A4503DB5246D31A9BB29A4653468C
:105340002B81E868002825D001F016FA22E0E988D0
:105350004904490C88469C4227D2964247D3B11A49
:1053600089B28C465800E11A89B28B466146091908
:10537000814208DBD11889B20E1BB6B28A46B2420E
:105380003BD9361AB6B2A21992B29246A146B7E7F5
:1053900000239946484603B0F0BCBB46B246A94636
:1053A000A046F0BDB21A92B292E700218946002BC6
:1053B000C7D04146E41A4C431600D118002289B2E6
:1053C0008A46994693463F199AE753439BB21A007F
:1053D00039005C440193FDF7CDFA414622004A436F
:1053E000019B286892B2F918FDF7C4FA9DE75800AE
:1053F000811A711889B28C46B5E7A146B04200DD2A
:105400007EE7BEE710B50400C068002803D0012184
:10541000494201F0C9F92069002803D0012149421D
:1054200001F0C2F90023E06863812381002801D0E4
:1054300001F0A2F92069002801D001F09DF90120B6
:1054400010BDC04670B50400C0680D00002803D030
:105450000121494201F0A8F92069002803D0012167
:10546000494201F0A1F97F21E379ED011940E0689B
:105470002943E171002801D001F07EF9206900285C
:1054800001D001F079F9012070BDC046014B1860D0
:10549000197170470C200020F8B505001E480C005B
:1054A0000860290017001E0000F056F8002806D1F9
:1054B0001A482900206000F04FF8002827D0290062
:1054C000206800F091F800213060206800F028F892
:1054D000069B40B23860002B14D0104B22689A42D1
:1054E00012D00A2509242000FCF706F8002807D06E
:1054F0002800FCF701F8002801D0002003E02C0070
:10550000069B1C600120F8BD08250724EBE701235A
:105510005B4200203360F6E700003050000020506E
:1055200010B50A4B0A4AC418240DA40082B0009298
:1055300008482200E31CFBF7F1FE844202DC001B5A
:1055400002B010BD01204042FAE7C0460000E0AFC3
:10555000746902109C1B002070B50D000400FBF75D
:10556000A5FE1F4A1F4B944601226444240DA4004B
:10557000E65805212C792023A2406956013A1B1BCD
:10558000002913DB002499420CDC13008B401E42DF
:1055900008D1AB79002B05D18A4014003440634216
:1055A0005C41E4B2FBF78EFE200070BD002B0BDBEC
:1055B000110099400E4205D10DE014009C401900E5
:1055C000264203D0013BF8D20024EBE7AB79002B55
:1055D000E2D00024E6E7AC7963425C41E4B2E1E763
:1055E0000000E0AFB8170020F0B55746DE464E4643
:1055F00045468846E0B583B006000524FBF756FE15
:10560000434684461C571879364B374AF3181B0D0E
:105610009B009246D75801228240013A002C42DB7F
:105620002021091A8C423BDC1100A14025000F42C9
:1056300036D14146096889464146897900294DD1CC
:10564000AA4093463A423FD18021890100228846F0
:10565000002816D06146A44634004E469946030001
:1056600001915100705A404500D240195119123130
:105670008900013208519342F3D8019B64469C464D
:105680004B465A4617435246D7506046FBF71AFE20
:10569000200003B0F0BCBB46B246A946A046F0BD10
:1056A00001246442F1E72024241A0DD41100A14002
:1056B00025008B46394205D109E01100A1402500A3
:1056C0000F42B6D0013CF8D209246442DDE74246DD
:1056D0001268914642469279002AB5D01424644259
:1056E000D3E7C0460000E0AFB8170020F0B5DE46B3
:1056F00057464E464546E0B51600DC22924685B038
:105700001C004B0002935B18DB00C518AA445246EC
:10571000834628001268CC30009202682B00019268
:105720001B4A80209446800263441860002C1DD0E0
:105730008023DB0499460123D83598462B00E027C7
:1057400055469A463F0203912000FCF7BDFF4A46AA
:10575000430113432B6033004246C340134052467B
:105760003B431360631E1C40EED10399029B5B1800
:10577000DB005B441A000099DC321160019ACC33E3
:105780001A6005B0F0BCBB46B246A946A046F0BDC3
:10579000CC300000F0B5DE4657464E464546E0B5F3
:1057A0001600DC22924685B01C004B0002935B1869
:1057B000DB00C518AA445246834628001268CC3044
:1057C000009202682B0001921B4A802094468002BE
:1057D00063441860002C1CD08023DB04994601230D
:1057E000D83598462B0055469A46144F0391200011
:1057F000FCF76AFF4A46430113432B6033004246DD
:10580000C340134052463B431360631E1C40EED11D
:105810000399029B5B18DB005B441A000099DC32A1
:105820001160019ACC331A6005B0F0BCBB46B24699
:10583000A946A046F0BDC046CC30000080E0000084
:10584000F0B54E464546DE465746E0B583B089463C
:105850000CA984460D781F2A45D849464900884638
:105860004944C900461837003400DC373868CC3466
:1058700083462068310001901C4880248246A4029F
:1058800051440C6069424D411E216D428D431849BF
:105890008A465544052B0CD9A0201F214005D83637
:1058A000540104430532053B3C600A403560052B3A
:1058B000F6D852019B06134342464A44D200624442
:1058C0001000DC3213600300D8331D605B461360A8
:1058D000019BCC300360002003B0F0BCBB46B24655
:1058E000A946A046F0BD05204042F5E7CC300000B7
:1058F0009FE00000F0B501258D400468AC430460D2
:10590000002B2ED04D006C18E400041926001F68EF
:10591000C83637609F68043677605F68DB68DC34C0
:10592000376023606B18184DDB00AC468025C41827
:1059300064442D0625602560144C0D1D8C40846048
:1059400001242600AE40802508318C401F21AD0186
:105950004519C0180A40D8302E602C600260002023
:10596000F0BD4D006C18E400041926008027C836ED
:105970007F023760C0273F03B760F82704367F02F5
:10598000DC3437602360CDE7D01000000101010155
:10599000F0B557464E464546DE46BF4AE0B5136869
:1059A000BE4F01331360082294463868073A844496
:1059B0006446A240BA4EBB4D336887B05968114265
:1059C0003AD1B94AB14690462E004546B74A0197AA
:1059D0000292B74A0392B74A04922A6801322A60B7
:1059E00082009A18176A009210229246196BFC0DD9
:1059F0000A40934652460A4200D082E0FF2C44D926
:105A00005A46327085225200944200D198E00A3AF8
:105A1000944200D194E0C5225200944200D0A1E00B
:105A20008A3AFF3A644632700122A2405968114214
:105A3000D3D035004E46019F012399469E4BA84680
:105A40002C781D0018E033683C689A465A68230099
:105A50004946103399400A4210D100F0D7FB534613
:105A60000434A400E0502C78013CE4B22C70002CEB
:105A700000D192E043461C78032CE4D007B0F0BC80
:105A8000BB46B246A946A046F0BD317802290ED0E9
:105A900030D8002966D08A2C00D1D1E05A46327025
:105AA00001226446A2405968114296D0C1E7029A89
:105AB000E4B211786118C9B21170039A0591117896
:105AC0008A4601218846C2445146C9B21170022952
:105AD00079D0049A17780337B94200D186E02000C4
:105AE00000F0E8FB019A4B461068082294461B68B8
:105AF0008444D5E70429D1D1002C6DD00022327026
:105B0000CEE76E4A440011682218D4001C19270001
:105B1000D83739600199CC34884621680029FCDBEC
:105B2000414601916649D200884680219A18424434
:105B300009061160116010221A6300223270AFE76B
:105B400000F090FB0028CDD0022301223370584B87
:105B50001A70564B1C70013CFF3C62425441594B39
:105B60001C70BFE7554A440011682218D4001C1964
:105B70002700D83739600199CC348846216800293C
:105B8000FCDB414601914E49D200884680219A189B
:105B9000424409061160116082E74A463B68454667
:105BA0000433DBB29A401300474A12685100891847
:105BB00032688900521845498C466244136000F0EF
:105BC00047FB2C705AE73F213A4A21401170404A66
:105BD0007900C90F117063E700F03AFB019A4B4658
:105BE0001068082294461B68844487E75A46354C5F
:105BF0003270059A2778002A00D1A3E0002F00D048
:105C00004EE72F4A8027904644002418E4001919D3
:105C100041443F061C190F600F6027002D49D837FB
:105C20000968009A39600199CC34884621680029B6
:105C3000FCDB4146019100211161013111612FE727
:105C400000F0B6FA1C4B071E187045D1019F4B4659
:105C500038681B6844002118194CC900A4468024E8
:105C60005A1862442406146014601A4A59181468B9
:105C70000A00B846D8321460CC310A68002AFCDB2E
:105C800042460021019282009A1811611161082296
:105C900094463170844403E714240020D426002065
:105CA000982400200F2F00201C2400200B2F002000
:105CB0000A2F00200E2F0020102F0020A01B0020F4
:105CC000D01000000C2F0020182400202C310000E0
:105CD0000D2F0020202400200323019A3370106828
:105CE0004B4644002118314C314AA04680241B68A1
:105CF0001268C90094465A18424424065918146080
:105D000014600C002B4AD8341268CC312260019AFE
:105D100090460A68002AFCDB4246011D8C00019275
:105D20007A1EE250CAB2012191406246224C5200D2
:105D30006244A44692009A18624411600822944674
:105D40008444ADE61D4B3900187800F0CDFA1C4BA9
:105D50001C49186803685B6A98472378002B00D0B9
:105D6000C0E6019F4B4638681B68440021180F4C61
:105D7000C900A44680245A186244240614601460A2
:105D80000C4A591814680A00B846D8321460CC314D
:105D90000A68002AFCDB42460021019282009A1820
:105DA0001161116108229446844479E6D010000004
:105DB00018240020202400202C2100000D2F00207A
:105DC000CC1B0020C81000208022054BD20510B546
:105DD00000211A6000200022FCF7E6FAFEE7C04628
:105DE00000B00540F0B54E46DE4657464546E0B5A4
:105DF000824B89B01C789946002C00D0E1E0804DA0
:105E0000280000F0FBFB002800D1F1E07D4B7E492B
:105E10001D602B682800DB6998477C4B7C4F9846B7
:105E20007C4B7D489A467D4B52469B4600974346A5
:105E30005946FFF731FB002800D1DCE05B461D68C6
:105E400053461E6843461B683100984680235B0218
:105E5000049342464346103202331203DB011343DC
:105E60006F4A00941340C022D20513430593C02308
:105E70001B0306938023DB050922079328000123D7
:105E8000FFF7DEFC674B0920EC18240D0634E4B262
:105E90002100FBF79FF9002201210920FBF7B4F94B
:105EA000079A614B31001A409023DB02134307939A
:105EB000059A5E4B28001A4090231B051343059357
:105EC000069A5B4B1A408023DB0213430693802221
:105ED000A023D200DB00FFF709FCA0230022DB0097
:105EE00031002800FFF756FC21000820FBF772F96B
:105EF00021000A20FBF76EF9002201210820FBF7A0
:105F000083F9012200210A20FBF77EF9069A494B0A
:105F100041461A4080231B0313430693079A464BBE
:105F200011311A40454B0520134307931F23444A60
:105F30000B401360434B444A1A60FCF7DDF9FCF751
:105F400095FC4249FCF777FCEC218905FCF770FCD5
:105F50000390FCF7B3FC84B20020002C38D1240459
:105F60000443049401244246310004AB2800FFF7A7
:105F7000C1FC2300B3402A68354913432B608022BB
:105F80003868FBF7E1FA38680121FBF753FA5B4602
:105F90001A68244B3968D318581E83415B000733B5
:105FA000C91A2C4B2000196053461B7898404B00AF
:105FB0005B189B00D218284B9C464B4662441060ED
:105FC0001C7009B0F0BCBB46B246A946A046F0BD65
:105FD0002000FCF74BFC011C0398FCF726FC8721F2
:105FE000C905FCF73CFCFCF769FCC0B20002B6E74F
:105FF0001A48FBF743F91A48FBF740F9032F002032
:10600000C0120020CC1B0020C810002094240020C7
:106010009C240020D4260020C06C0210982400206C
:10602000FFFFFF9F0000E0AFFF7FF0FFFFFFFFE0FB
:10603000FFFF0AFEFFFFF5C100800FE048211004BA
:1060400020240020A01B002040E000000024F44990
:1060500091590210182400202C2100009869021088
:10606000B06902107047C0467047C04610B5FCF7D3
:10607000ADFD1920FBF7DCF8D02380221B0692042B
:106080005A62FFF7AFFE00F0DBFAFFF7EBFF054CBB
:10609000206803689B6A002B00D09847FFF7E4FF55
:1060A000F6E7C046CC1B00207047C0467047C0468C
:1060B0007047C0467047C046F8B5384B4746CE4695
:1060C0009946374B80B59846364F374C00F028F943
:1060D0003860002830D000234A462370C3B2DB0961
:1060E000137042464306DB0F13703F2303403B60AF
:1060F0004CD0002500232D4E0133237000F046F9CB
:1061000023783A6870551D009342F5DB00F060F982
:106110004B461B78002B13D000232578735543463C
:106120001B78002B19D129003000FFF7BFFF00F0CA
:10613000F7F838600028CED1C0BCB946B046F8BDEB
:1061400043461B782178002B18D03000FFF79EF9CA
:1061500030002178FFF7ACFFB8E73378422B17D037
:10616000462BB3D100F082FA013D0100EAB2701C67
:1061700000F080FA0028A9D1FFF726FE3000FFF7D3
:1061800085F930002178FFF78FFF9FE7074EBDE7C5
:10619000013DE9B2701CFFF78DFF97E7082F002043
:1061A000072F00206C240020062F00202C24002024
:1061B0000F4B104A1B681268D21A511E01D50E49A6
:1061C0005118002911D00D495A1C8C466344591EA0
:1061D0008B411F205B421A40094B1A60094B9B5CA4
:1061E0001840094B0230186070470020FCE7C04699
:1061F000E02E0020DC100020FF07000001F8FFFF68
:10620000E82E0020E0260020E42E00200C4910B5E6
:106210000B68002B11D00B4C0B482268013B805CB3
:106220000B60002B08D00949531C8C466244511E58
:106230008A4152421340236010BD0020FCE7C04653
:10624000E42E0020E82E0020E026002001F8FFFFC9
:10625000024A034B12681A607047C046E82E0020BD
:10626000E02E00200E4B0F4A1B681268D21A03D58D
:10627000802189008C466244212A0EDD0A495A1C7D
:106280008C466344591E8B415B421A40074B0120E8
:106290001A600022064B1A6070470020FCE7C046D7
:1062A000D8100020B826002001FEFFFFC8260020DD
:1062B000C42600200849094A0B68D05408485A1CD3
:1062C00084466344581E83415B421A400A60054A73
:1062D0001368013313607047C8260020B8240020DB
:1062E00001FEFFFFC4260020094A1368002802D0DF
:1062F000802003431360002902D040210B43136028
:106300000449054A08681354044B1B680B60704726
:10631000C4260020D8100020B8240020C826002061
:10632000144B154A1B68126810B5D21A511E01D5BC
:106330001249511800291AD080215A1C89008A421A
:106340000FD00F49885C991CFF3BFF3B5C1EA341AB
:106350003F225B42024019400A4B1A600A4B196007
:1063600010BD3F22064B012118780240F4E70020BF
:10637000F6E7C046B8260020D8100020FF01000034
:10638000B8240020BC260020C02600200C4910B5EF
:106390000B68002B11D00B4C0B482268013B805C32
:1063A0000B60002B08D00949531C8C466244511ED7
:1063B0008A4152421340236010BD0020FCE7C046D2
:1063C000BC260020C0260020B824002001FEFFFFCC
:1063D000024A034B12681A607047C046C02600206C
:1063E000B826002083680830002B04D107E018008D
:1063F0001B68002B03D09942F9D1002003E0002351
:10640000016001200B6070478368002B08D08B422D
:1064100002D107E0994206D018001B68002BF9D181
:106420000020704708300B6803600120F9E7C04680
:1064300043680430002B04D107E018001B68002BD0
:1064400003D09942F9D1002003E00023016001202C
:106450000B6070474368002B08D08B4202D107E0E5
:10646000994206D018001B68002BF9D10020704714
:1064700004300B6803600120F9E7C046F0B55746C9
:10648000DE464646C0B53E4B82B05C681B68009352
:10649000019483688246002B2CD0082353449B46EA
:1064A000FBF722FE53469B6804000D005F46002B5D
:1064B00020D000221E0094469846B268F36820005F
:1064C0002900801A9941002902DB14001D00BC46F6
:1064D00037003668002EF0D162464346002A48D085
:1064E000116850460B6813604B68984753469B6889
:1064F000002BD5D153465C68002C29D00025564688
:10650000237A002B31D02100636825723000984730
:106510002468002CF4D1B168B246002918D0009C40
:10652000019D0E0003E004000D00002E0ED033008C
:1065300022009868D9682B00121A8B413668002B0C
:10654000F1DCF2D1002AEED1002EF0D100940195B9
:10655000009B019C5246180021001361546102B057
:10656000E0BCBB46B246A846F0BD2468002CC7D1AB
:10657000D1E7190053465C68002CBFD1CFE7C04675
:10658000006A02107047C04610B51000884710BD61
:106590001900436910B5140002698B4206D803D074
:1065A000203000F031F910BDA242F9D922000B00D1
:1065B000F6E7C04610B510001900FBF79BFC10BDB4
:1065C00010B5FFF75BFF10BD012310B520300B7233
:1065D00000F0BAF810BDC04610B5EFF30583002BEC
:1065E00006D1D0231B06827E1B689A4200D110BDC3
:1065F0000148FAF743FEC046C469021010B52822CC
:1066000000210400FCF7B0F9D0231B061B68200012
:10661000A376054B0122236005230121238320302B
:10662000FBF7FCF8012010BD006D021010B505202D
:10663000FBF762FE014B186010BDC046E814002055
:10664000802210B5D20005490548FCF793F90548AA
:10665000FBF732F90122044B1A7010BD0000021042
:10666000081C0020D01B0020012F0020004870478C
:106670000000021030B5002A26D003000B439B0710
:1066800024D1032A22D9164D0BE0043A002A1BD04C
:10669000144C1C199C432C4216D104300431032A9B
:1066A00014D903680C68A342EFD004780D78A54292
:1066B00013D1012306E0C45CCD5CAC420DD10133A3
:1066C0009A4201D0002CF6D1002030BD04780D781C
:1066D000AC4202D1012AECD1F6E7601BF5E7C046D7
:1066E00080808080FFFEFEFE10B583070AD0030085
:1066F000032102E001330B4205D01A78002AF9D1B8
:10670000181A10BD030019680C4A0D4C8A188A43E8
:1067100022420FD15968094A04338A188A43224217
:1067200008D15968054A04338A188A432242F1D0B5
:1067300000E001331A78002AFBD1E1E7FFFEFEFEFC
:1067400080808080F8B5C04601B40248844601BC10
:10675000604700BF2901002001B40248844601BC03
:10676000604700BF610C002001B40248844601BCB0
:10677000604700BF7D03002001B40248844601BC8D
:10678000604700BFE102002001B40248844601BC1A
:10679000604700BF810F002001B40248844601BC5D
:1067A000604700BF7501002001B40248844601BC67
:1067B000604700BF5102002001B40248844601BC7A
:1067C000604700BFB501002001B40248844601BC07
:1067D000604700BFF10C002001B40248844601BCB0
:1067E000604700BF3D04002001B40248844601BC5C
:1067F000604700BFA10C002001B40248844601BCE0
:10680000604700BF390C002001B40248844601BC37
:08681000604700BFC100002039
:106818000A2A2A2A2050414E4943202A2A2A0A00B5
:106828000A0000004E6F207370696E6C6F636B73A3
:106838002061726520617661696C61626C65000037
:106848004E6F2075736572204952517320617265CD
:1068580020617661696C61626C65000048617264F0
:106868007761726520616C61726D20256420616CAE
:10687800726561647920636C61696D65640000000C
:1068880048617264206173736572740052656C6547
:1068980061736500626F6F74325F773235713038BB
:1068A80030000000322E312E310000007069636F15
:1068B8000000000074657374626F6172645F6677CC
:1068C800000000004A756E20323620323032360021
:1068D80055534220737464696E202F207374646F5B
:1068E8007574000052617370626572727920506924
:1068F800000000005069636F00000000426F617281
:10690800642043444300000052657365740000002E
:10691800556E68616E646C65642049525120307808
:1069280025780A0065702025303258207761732059
:10693800616C726561647920617661696C61626C11
:106948006500000043616E277420636F6E74696E82
:1069580075652078666572206F6E20696E61637454
:106968006976652065702025303258004E6F2050BA
:10697800494F207374617465206D616368696E6541
:10698800732061726520617661696C61626C650073
:106998006661696C656420746F2073657475702016
:1069A800636F6E74657874006661696C65642074E1
:1069B8006F2073657475702070696F006173796EEC
:1069C800635F636F6E746578745F706F6C6C20635F
:1069D8006F6E7465787420636865636B206661699F
:1069E8006C65642028495251206F722077726F6E4F
:1069F8006720636F72652900FFFFFFFFFFFFFF7FBE
:106A080006005250D3F075429468021006005250A6
:106A1800E182887F9C68021006005250ABB3605335
:106A2800AC68021006005250BBFF3CB6B4680210B6
:106A380006005250861C0302BC6802100600525021
:106A48005422A29DCC68021005005250DE65F468FD
:106A5800D07D02100D0A000000000000A92C0210D1
:106A680000000000AD2C0210B92C0210E52C021019
:106A7800E12C0210000000000A00000000000306DC
:106A8800A6000800020002009C00140003005749F9
:106A98004E55534200000000000000000000800036
:106AA80004000100280044006500760069006300C6
:106AB800650049006E0074006500720066006100A0
:106AC80063006500470055004900440000004E007F
